{"abi":[{"type":"constructor","inputs":[{"name":"numberOfPlayers","type":"uint8","internalType":"uint8"},{"name":"_nftContract","type":"address","internalType":"address"}],"stateMutability":"nonpayable"},{"type":"function","name":"allowance","inputs":[{"name":"owner","type":"address","internalType":"address"},{"name":"spender","type":"address","internalType":"address"}],"outputs":[{"name":"","type":"uint256","internalType":"uint256"}],"stateMutability":"view"},{"type":"function","name":"approve","inputs":[{"name":"spender","type":"address","internalType":"address"},{"name":"value","type":"uint256","internalType":"uint256"}],"outputs":[{"name":"","type":"bool","internalType":"bool"}],"stateMutability":"nonpayable"},{"type":"function","name":"bal","inputs":[{"name":"addr","type":"address","internalType":"address"}],"outputs":[{"name":"","type":"uint256","internalType":"uint256"}],"stateMutability":"view"},{"type":"function","name":"balanceOf","inputs":[{"name":"account","type":"address","internalType":"address"}],"outputs":[{"name":"","type":"uint256","internalType":"uint256"}],"stateMutability":"view"},{"type":"function","name":"buyProperty","inputs":[{"name":"propertyId","type":"uint8","internalType":"uint8"},{"name":"buyer","type":"address","internalType":"address"}],"outputs":[],"stateMutability":"nonpayable"},{"type":"function","name":"decimals","inputs":[],"outputs":[{"name":"","type":"uint8","internalType":"uint8"}],"stateMutability":"view"},{"type":"function","name":"downgradeProperty","inputs":[{"name":"propertyId","type":"uint8","internalType":"uint8"},{"name":"noOfDowngrade","type":"uint8","internalType":"uint8"},{"name":"player","type":"address","internalType":"address"}],"outputs":[],"stateMutability":"nonpayable"},{"type":"function","name":"gameProperties","inputs":[{"name":"","type":"uint8","internalType":"uint8"}],"outputs":[{"name":"name","type":"bytes","internalType":"bytes"},{"name":"uri","type":"bytes","internalType":"bytes"},{"name":"buyAmount","type":"uint256","internalType":"uint256"},{"name":"rentAmount","type":"uint256","internalType":"uint256"},{"name":"owner","type":"address","internalType":"address"},{"name":"noOfUpgrades","type":"uint8","internalType":"uint8"},{"name":"propertyType","type":"uint8","internalType":"enum MonopolyLibrary.PropertyType"},{"name":"propertyColor","type":"uint8","internalType":"enum MonopolyLibrary.PropertyColors"}],"stateMutability":"view"},{"type":"function","name":"getNumberOfUserOwnedPropertyOnAColor","inputs":[{"name":"user","type":"address","internalType":"address"},{"name":"color","type":"uint8","internalType":"enum MonopolyLibrary.PropertyColors"}],"outputs":[{"name":"","type":"uint8","internalType":"uint8"}],"stateMutability":"view"},{"type":"function","name":"getPropertiesOwnedByAPlayer","inputs":[{"name":"_playerAddress","type":"address","internalType":"address"}],"outputs":[{"name":"","type":"tuple[]","internalType":"struct MonopolyLibrary.PropertyG[]","components":[{"name":"name","type":"bytes","internalType":"bytes"},{"name":"uri","type":"bytes","internalType":"bytes"},{"name":"buyAmount","type":"uint256","internalType":"uint256"},{"name":"rentAmount","type":"uint256","internalType":"uint256"},{"name":"owner","type":"address","internalType":"address"},{"name":"noOfUpgrades","type":"uint8","internalType":"uint8"},{"name":"propertyType","type":"uint8","internalType":"enum MonopolyLibrary.PropertyType"},{"name":"propertyColor","type":"uint8","internalType":"enum MonopolyLibrary.PropertyColors"}]}],"stateMutability":"view"},{"type":"function","name":"getProperty","inputs":[{"name":"propertyId","type":"uint8","internalType":"uint8"}],"outputs":[{"name":"property","type":"tuple","internalType":"struct MonopolyLibrary.PropertyG","components":[{"name":"name","type":"bytes","internalType":"bytes"},{"name":"uri","type":"bytes","internalType":"bytes"},{"name":"buyAmount","type":"uint256","internalType":"uint256"},{"name":"rentAmount","type":"uint256","internalType":"uint256"},{"name":"owner","type":"address","internalType":"address"},{"name":"noOfUpgrades","type":"uint8","internalType":"uint8"},{"name":"propertyType","type":"uint8","internalType":"enum MonopolyLibrary.PropertyType"},{"name":"propertyColor","type":"uint8","internalType":"enum MonopolyLibrary.PropertyColors"}]}],"stateMutability":"view"},{"type":"function","name":"getPropertyOwner","inputs":[{"name":"propertyId","type":"uint8","internalType":"uint8"}],"outputs":[{"name":"_propertyOwner","type":"address","internalType":"address"}],"stateMutability":"view"},{"type":"function","name":"getProposalSwappedType","inputs":[{"name":"proposalId","type":"uint8","internalType":"uint8"}],"outputs":[{"name":"","type":"tuple","internalType":"struct MonopolyLibrary.SwappedType","components":[{"name":"cashForProperty","type":"tuple","internalType":"struct MonopolyLibrary.CashForProperty","components":[{"name":"proposedAmount","type":"uint256","internalType":"uint256"},{"name":"biddingPropertyId","type":"uint8","internalType":"uint8"}]},{"name":"propertyForCash","type":"tuple","internalType":"struct MonopolyLibrary.PropertyForCash","components":[{"name":"propertyId","type":"uint8","internalType":"uint8"},{"name":"biddingAmount","type":"uint256","internalType":"uint256"}]},{"name":"propertyAndCashForProperty","type":"tuple","internalType":"struct MonopolyLibrary.PropertyAndCashForProperty","components":[{"name":"proposedPropertyId","type":"uint8","internalType":"uint8"},{"name":"proposedAmount","type":"uint256","internalType":"uint256"},{"name":"biddingPropertyId","type":"uint8","internalType":"uint8"}]},{"name":"propertyForCashAndProperty","type":"tuple","internalType":"struct MonopolyLibrary.PropertyForCashAndProperty","components":[{"name":"proposedPropertyId","type":"uint8","internalType":"uint8"},{"name":"biddingPropertyId","type":"uint8","internalType":"uint8"},{"name":"biddingAmount","type":"uint256","internalType":"uint256"}]},{"name":"propertyForProperty","type":"tuple","internalType":"struct MonopolyLibrary.PropertyForProperty","components":[{"name":"proposedPropertyId","type":"uint8","internalType":"uint8"},{"name":"biddingPropertyId","type":"uint8","internalType":"uint8"}]}]}],"stateMutability":"view"},{"type":"function","name":"handleRent","inputs":[{"name":"player","type":"address","internalType":"address"},{"name":"propertyId","type":"uint8","internalType":"uint8"},{"name":"diceRolled","type":"uint8","internalType":"uint8"}],"outputs":[],"stateMutability":"nonpayable"},{"type":"function","name":"inGameProposals","inputs":[{"name":"","type":"uint256","internalType":"uint256"}],"outputs":[{"name":"player","type":"address","internalType":"address"},{"name":"otherPlayer","type":"address","internalType":"address"},{"name":"swapType","type":"uint8","internalType":"enum MonopolyLibrary.SwapType"},{"name":"proposalStatus","type":"uint8","internalType":"enum MonopolyLibrary.ProposalStatus"}],"stateMutability":"view"},{"type":"function","name":"makeDecisionOnProposal","inputs":[{"name":"_user","type":"address","internalType":"address"},{"name":"proposalId","type":"uint256","internalType":"uint256"},{"name":"isAccepted","type":"bool","internalType":"bool"}],"outputs":[],"stateMutability":"nonpayable"},{"type":"function","name":"makeProposal","inputs":[{"name":"proposer","type":"address","internalType":"address"},{"name":"otherPlayer","type":"address","internalType":"address"},{"name":"proposedPropertyId","type":"uint8","internalType":"uint8"},{"name":"biddingPropertyId","type":"uint8","internalType":"uint8"},{"name":"swapType","type":"uint8","internalType":"enum MonopolyLibrary.SwapType"},{"name":"amountInvolved","type":"uint256","internalType":"uint256"}],"outputs":[],"stateMutability":"nonpayable"},{"type":"function","name":"mint","inputs":[{"name":"to","type":"address","internalType":"address"},{"name":"amount","type":"uint256","internalType":"uint256"}],"outputs":[],"stateMutability":"nonpayable"},{"type":"function","name":"mints","inputs":[{"name":"to","type":"address[]","internalType":"address[]"},{"name":"amount","type":"uint256","internalType":"uint256"}],"outputs":[],"stateMutability":"nonpayable"},{"type":"function","name":"mortgageProperty","inputs":[{"name":"propertyId","type":"uint8","internalType":"uint8"},{"name":"player","type":"address","internalType":"address"}],"outputs":[],"stateMutability":"nonpayable"},{"type":"function","name":"name","inputs":[],"outputs":[{"name":"","type":"string","internalType":"string"}],"stateMutability":"view"},{"type":"function","name":"noOfColorGroupOwnedByUser","inputs":[{"name":"","type":"uint8","internalType":"enum MonopolyLibrary.PropertyColors"},{"name":"","type":"address","internalType":"address"}],"outputs":[{"name":"","type":"uint8","internalType":"uint8"}],"stateMutability":"view"},{"type":"function","name":"propertyOwner","inputs":[{"name":"","type":"uint8","internalType":"uint8"}],"outputs":[{"name":"","type":"address","internalType":"address"}],"stateMutability":"view"},{"type":"function","name":"propertySwap","inputs":[{"name":"","type":"address","internalType":"address"}],"outputs":[{"name":"bidder","type":"address","internalType":"address"},{"name":"clientAddress","type":"address","internalType":"address"},{"name":"biddersProperty","type":"uint8","internalType":"uint8"},{"name":"yourProperty","type":"uint8","internalType":"uint8"},{"name":"swapType","type":"uint8","internalType":"enum MonopolyLibrary.SwapType"},{"name":"biddingAmount","type":"uint256","internalType":"uint256"}],"stateMutability":"view"},{"type":"function","name":"propertyToProposal","inputs":[{"name":"","type":"uint8","internalType":"uint8"}],"outputs":[{"name":"","type":"uint8","internalType":"uint8"}],"stateMutability":"view"},{"type":"function","name":"releaseMortgage","inputs":[{"name":"propertyId","type":"uint8","internalType":"uint8"},{"name":"player","type":"address","internalType":"address"}],"outputs":[],"stateMutability":"nonpayable"},{"type":"function","name":"returnProposal","inputs":[{"name":"user","type":"address","internalType":"address"}],"outputs":[{"name":"","type":"tuple","internalType":"struct MonopolyLibrary.PropertySwap","components":[{"name":"bidder","type":"address","internalType":"address"},{"name":"clientAddress","type":"address","internalType":"address"},{"name":"biddersProperty","type":"uint8","internalType":"uint8"},{"name":"yourProperty","type":"uint8","internalType":"uint8"},{"name":"swapType","type":"uint8","internalType":"enum MonopolyLibrary.SwapType"},{"name":"biddingAmount","type":"uint256","internalType":"uint256"}]}],"stateMutability":"view"},{"type":"function","name":"swappedType","inputs":[{"name":"","type":"uint256","internalType":"uint256"}],"outputs":[{"name":"cashForProperty","type":"tuple","internalType":"struct MonopolyLibrary.CashForProperty","components":[{"name":"proposedAmount","type":"uint256","internalType":"uint256"},{"name":"biddingPropertyId","type":"uint8","internalType":"uint8"}]},{"name":"propertyForCash","type":"tuple","internalType":"struct MonopolyLibrary.PropertyForCash","components":[{"name":"propertyId","type":"uint8","internalType":"uint8"},{"name":"biddingAmount","type":"uint256","internalType":"uint256"}]},{"name":"propertyAndCashForProperty","type":"tuple","internalType":"struct MonopolyLibrary.PropertyAndCashForProperty","components":[{"name":"proposedPropertyId","type":"uint8","internalType":"uint8"},{"name":"proposedAmount","type":"uint256","internalType":"uint256"},{"name":"biddingPropertyId","type":"uint8","internalType":"uint8"}]},{"name":"propertyForCashAndProperty","type":"tuple","internalType":"struct MonopolyLibrary.PropertyForCashAndProperty","components":[{"name":"proposedPropertyId","type":"uint8","internalType":"uint8"},{"name":"biddingPropertyId","type":"uint8","internalType":"uint8"},{"name":"biddingAmount","type":"uint256","internalType":"uint256"}]},{"name":"propertyForProperty","type":"tuple","internalType":"struct MonopolyLibrary.PropertyForProperty","components":[{"name":"proposedPropertyId","type":"uint8","internalType":"uint8"},{"name":"biddingPropertyId","type":"uint8","internalType":"uint8"}]}],"stateMutability":"view"},{"type":"function","name":"symbol","inputs":[],"outputs":[{"name":"","type":"string","internalType":"string"}],"stateMutability":"view"},{"type":"function","name":"totalSupply","inputs":[],"outputs":[{"name":"","type":"uint256","internalType":"uint256"}],"stateMutability":"view"},{"type":"function","name":"transfer","inputs":[{"name":"to","type":"address","internalType":"address"},{"name":"value","type":"uint256","internalType":"uint256"}],"outputs":[{"name":"","type":"bool","internalType":"bool"}],"stateMutability":"nonpayable"},{"type":"function","name":"transferFrom","inputs":[{"name":"from","type":"address","internalType":"address"},{"name":"to","type":"address","internalType":"address"},{"name":"value","type":"uint256","internalType":"uint256"}],"outputs":[{"name":"","type":"bool","internalType":"bool"}],"stateMutability":"nonpayable"},{"type":"function","name":"upgradeProperty","inputs":[{"name":"propertyId","type":"uint8","internalType":"uint8"},{"name":"_noOfUpgrade","type":"uint8","internalType":"uint8"},{"name":"player","type":"address","internalType":"address"}],"outputs":[],"stateMutability":"nonpayable"},{"type":"function","name":"viewDeals","inputs":[{"name":"myDeals","type":"address","internalType":"address"}],"outputs":[{"name":"currentDeal","type":"tuple","internalType":"struct MonopolyLibrary.PropertySwap","components":[{"name":"bidder","type":"address","internalType":"address"},{"name":"clientAddress","type":"address","internalType":"address"},{"name":"biddersProperty","type":"uint8","internalType":"uint8"},{"name":"yourProperty","type":"uint8","internalType":"uint8"},{"name":"swapType","type":"uint8","internalType":"enum MonopolyLibrary.SwapType"},{"name":"biddingAmount","type":"uint256","internalType":"uint256"}]}],"stateMutability":"view"},{"type":"event","name":"Approval","inputs":[{"name":"owner","type":"address","indexed":true,"internalType":"address"},{"name":"spender","type":"address","indexed":true,"internalType":"address"},{"name":"value","type":"uint256","indexed":false,"internalType":"uint256"}],"anonymous":false},{"type":"event","name":"PropertyBid","inputs":[{"name":"propertyId","type":"uint8","indexed":true,"internalType":"uint8"},{"name":"bidder","type":"address","indexed":true,"internalType":"address"},{"name":"bidAmount","type":"uint256","indexed":false,"internalType":"uint256"}],"anonymous":false},{"type":"event","name":"PropertyDownGraded","inputs":[{"name":"propertyId","type":"uint256","indexed":false,"internalType":"uint256"}],"anonymous":false},{"type":"event","name":"PropertyMortgaged","inputs":[{"name":"propertyId","type":"uint256","indexed":false,"internalType":"uint256"},{"name":"mortgageAmount","type":"uint256","indexed":false,"internalType":"uint256"},{"name":"owner","type":"address","indexed":false,"internalType":"address"}],"anonymous":false},{"type":"event","name":"PropertySold","inputs":[{"name":"propertyId","type":"uint8","indexed":true,"internalType":"uint8"},{"name":"newOwner","type":"address","indexed":true,"internalType":"address"},{"name":"amount","type":"uint256","indexed":false,"internalType":"uint256"}],"anonymous":false},{"type":"event","name":"PropertyUpGraded","inputs":[{"name":"propertyId","type":"uint256","indexed":false,"internalType":"uint256"}],"anonymous":false},{"type":"event","name":"Transfer","inputs":[{"name":"from","type":"address","indexed":true,"internalType":"address"},{"name":"to","type":"address","indexed":true,"internalType":"address"},{"name":"value","type":"uint256","indexed":false,"internalType":"uint256"}],"anonymous":false},{"type":"error","name":"ERC20InsufficientAllowance","inputs":[{"name":"spender","type":"address","internalType":"address"},{"name":"allowance","type":"uint256","internalType":"uint256"},{"name":"needed","type":"uint256","internalType":"uint256"}]},{"type":"error","name":"ERC20InsufficientBalance","inputs":[{"name":"sender","type":"address","internalType":"address"},{"name":"balance","type":"uint256","internalType":"uint256"},{"name":"needed","type":"uint256","internalType":"uint256"}]},{"type":"error","name":"ERC20InvalidApprover","inputs":[{"name":"approver","type":"address","internalType":"address"}]},{"type":"error","name":"ERC20InvalidReceiver","inputs":[{"name":"receiver","type":"address","internalType":"address"}]},{"type":"error","name":"ERC20InvalidSender","inputs":[{"name":"sender","type":"address","internalType":"address"}]},{"type":"error","name":"ERC20InvalidSpender","inputs":[{"name":"spender","type":"address","internalType":"address"}]},{"type":"error","name":"ReentrancyGuardReentrantCall","inputs":[]}],"bytecode":{"object":"0x608060405234801561000f575f5ffd5b5060405161846538038061846583398181016040528101906100319190610a3b565b6040518060400160405280600881526020017f47616d6542616e6b0000000000000000000000000000000000000000000000008152506040518060400160405280600281526020017f474200000000000000000000000000000000000000000000000000000000000081525081600390816100ac9190610cb6565b5080600490816100bc9190610cb6565b50505060016005819055505f6103e861ffff1660048460ff166100df9190610db2565b6100e99190610de5565b90505f8273ffffffffffffffffffffffffffffffffffffffff163b11610144576040517f08c379a000000000000000000000000000000000000000000000000000000000815260040161013b90610e80565b60405180910390fd5b81600c5f6101000a81548173ffffffffffffffffffffffffffffffffffffffff021916908373ffffffffffffffffffffffffffffffffffffffff16021790555061019430826101b860201b60201c565b6101a261023d60201b60201c565b6101b061034c60201b60201c565b50505061148f565b5f73ffffffffffffffffffffffffffffffffffffffff168273ffffffffffffffffffffffffffffffffffffffff1603610228575f6040517fec442f0500000000000000000000000000000000000000000000000000000000815260040161021f9190610ead565b60405180910390fd5b6102395f83836105c460201b60201c565b5050565b5f600c5f9054906101000a900473ffffffffffffffffffffffffffffffffffffffff1673ffffffffffffffffffffffffffffffffffffffff16633d51402c6040518163ffffffff1660e01b81526004015f60405180830381865afa1580156102a7573d5f5f3e3d5ffd5b505050506040513d5f823e3d601f19601f820116820180604052508101906102cf9190611204565b90505f815190508151600c60146101000a81548160ff021916908360ff1602179055505f5f90505b818160ff161015610347575f838260ff16815181106103195761031861124b565b5b6020026020010151905061033381836107dd60201b60201c565b50808061033f90611278565b9150506102f7565b505050565b6003600b5f5f6007811115610364576103636112a0565b5b6007811115610376576103756112a0565b5b81526020019081526020015f205f6101000a81548160ff021916908360ff1602179055506003600b5f600160078111156103b3576103b26112a0565b5b60078111156103c5576103c46112a0565b5b81526020019081526020015f205f6101000a81548160ff021916908360ff1602179055506003600b5f60026007811115610402576104016112a0565b5b6007811115610414576104136112a0565b5b81526020019081526020015f205f6101000a81548160ff021916908360ff1602179055506003600b5f60036007811115610451576104506112a0565b5b6007811115610463576104626112a0565b5b81526020019081526020015f205f6101000a81548160ff021916908360ff1602179055506003600b5f600460078111156104a05761049f6112a0565b5b60078111156104b2576104b16112a0565b5b81526020019081526020015f205f6101000a81548160ff021916908360ff1602179055506003600b5f600560078111156104ef576104ee6112a0565b5b6007811115610501576105006112a0565b5b81526020019081526020015f205f6101000a81548160ff021916908360ff1602179055506003600b5f6006600781111561053e5761053d6112a0565b5b60078111156105505761054f6112a0565b5b81526020019081526020015f205f6101000a81548160ff021916908360ff1602179055506002600b5f60078081111561058c5761058b6112a0565b5b600781111561059e5761059d6112a0565b5b81526020019081526020015f205f6101000a81548160ff021916908360ff160217905550565b5f73ffffffffffffffffffffffffffffffffffffffff168373ffffffffffffffffffffffffffffffffffffffff1603610614578060025f8282546106089190610db2565b925050819055506106e2565b5f5f5f8573ffffffffffffffffffffffffffffffffffffffff1673ffffffffffffffffffffffffffffffffffffffff1681526020019081526020015f205490508181101561069d578381836040517fe450d38c000000000000000000000000000000000000000000000000000000008152600401610694939291906112dc565b60405180910390fd5b8181035f5f8673ffffffffffffffffffffffffffffffffffffffff1673ffffffffffffffffffffffffffffffffffffffff1681526020019081526020015f2081905550505b5f73ffffffffffffffffffffffffffffffffffffffff168273ffffffffffffffffffffffffffffffffffffffff1603610729578060025f8282540392505081905550610773565b805f5f8473ffffffffffffffffffffffffffffffffffffffff1673ffffffffffffffffffffffffffffffffffffffff1681526020019081526020015f205f82825401925050819055505b8173ffffffffffffffffffffffffffffffffffffffff168373ffffffffffffffffffffffffffffffffffffffff167fddf252ad1be2c89b69c2b068fc378daa952ba7f163c4a11628f55a4df523b3ef836040516107d09190611311565b60405180910390a3505050565b604051806101000160405280835f015181526020018360400151815260200183606001518152602001836020015181526020013073ffffffffffffffffffffffffffffffffffffffff1681526020015f60ff1681526020018360800151600381111561084c5761084b6112a0565b5b81526020018360a001516007811115610868576108676112a0565b5b815250600d5f60018461087b919061132a565b60ff1660ff1681526020019081526020015f205f820151815f0190816108a191906113c0565b5060208201518160010190816108b791906113c0565b5060408201518160020155606082015181600301556080820151816004015f6101000a81548173ffffffffffffffffffffffffffffffffffffffff021916908373ffffffffffffffffffffffffffffffffffffffff16021790555060a08201518160040160146101000a81548160ff021916908360ff16021790555060c08201518160040160156101000a81548160ff0219169083600381111561095e5761095d6112a0565b5b021790555060e08201518160040160166101000a81548160ff0219169083600781111561098e5761098d6112a0565b5b02179055509050505050565b5f604051905090565b5f5ffd5b5f5ffd5b5f60ff82169050919050565b6109c0816109ab565b81146109ca575f5ffd5b50565b5f815190506109db816109b7565b92915050565b5f73ffffffffffffffffffffffffffffffffffffffff82169050919050565b5f610a0a826109e1565b9050919050565b610a1a81610a00565b8114610a24575f5ffd5b50565b5f81519050610a3581610a11565b92915050565b5f5f60408385031215610a5157610a506109a3565b5b5f610a5e858286016109cd565b9250506020610a6f85828601610a27565b9150509250929050565b5f81519050919050565b7f4e487b71000000000000000000000000000000000000000000000000000000005f52604160045260245ffd5b7f4e487b71000000000000000000000000000000000000000000000000000000005f52602260045260245ffd5b5f6002820490506001821680610af457607f821691505b602082108103610b0757610b06610ab0565b5b50919050565b5f819050815f5260205f209050919050565b5f6020601f8301049050919050565b5f82821b905092915050565b5f60088302610b697fffffffffffffffffffffffffffffffffffffffffffffffffffffffffffffffff82610b2e565b610b738683610b2e565b95508019841693508086168417925050509392505050565b5f819050919050565b5f819050919050565b5f610bb7610bb2610bad84610b8b565b610b94565b610b8b565b9050919050565b5f819050919050565b610bd083610b9d565b610be4610bdc82610bbe565b848454610b3a565b825550505050565b5f5f905090565b610bfb610bec565b610c06818484610bc7565b505050565b5b81811015610c2957610c1e5f82610bf3565b600181019050610c0c565b5050565b601f821115610c6e57610c3f81610b0d565b610c4884610b1f565b81016020851015610c57578190505b610c6b610c6385610b1f565b830182610c0b565b50505b505050565b5f82821c905092915050565b5f610c8e5f1984600802610c73565b1980831691505092915050565b5f610ca68383610c7f565b9150826002028217905092915050565b610cbf82610a79565b67ffffffffffffffff811115610cd857610cd7610a83565b5b610ce28254610add565b610ced828285610c2d565b5f60209050601f831160018114610d1e575f8415610d0c578287015190505b610d168582610c9b565b865550610d7d565b601f198416610d2c86610b0d565b5f5b82811015610d5357848901518255600182019150602085019450602081019050610d2e565b86831015610d705784890151610d6c601f891682610c7f565b8355505b6001600288020188555050505b505050505050565b7f4e487b71000000000000000000000000000000000000000000000000000000005f52601160045260245ffd5b5f610dbc82610b8b565b9150610dc783610b8b565b9250828201905080821115610ddf57610dde610d85565b5b92915050565b5f610def82610b8b565b9150610dfa83610b8b565b9250828202610e0881610b8b565b91508282048414831517610e1f57610e1e610d85565b5b5092915050565b5f82825260208201905092915050565b7f6e6f74206120636f6e74726163742061646472657373000000000000000000005f82015250565b5f610e6a601683610e26565b9150610e7582610e36565b602082019050919050565b5f6020820190508181035f830152610e9781610e5e565b9050919050565b610ea781610a00565b82525050565b5f602082019050610ec05f830184610e9e565b92915050565b5f5ffd5b5f601f19601f8301169050919050565b610ee382610eca565b810181811067ffffffffffffffff82111715610f0257610f01610a83565b5b80604052505050565b5f610f1461099a565b9050610f208282610eda565b919050565b5f67ffffffffffffffff821115610f3f57610f3e610a83565b5b602082029050602081019050919050565b5f5ffd5b5f5ffd5b5f5ffd5b5f5ffd5b5f67ffffffffffffffff821115610f7a57610f79610a83565b5b610f8382610eca565b9050602081019050919050565b8281835e5f83830152505050565b5f610fb0610fab84610f60565b610f0b565b905082815260208101848484011115610fcc57610fcb610f5c565b5b610fd7848285610f90565b509392505050565b5f82601f830112610ff357610ff2610ec6565b5b8151611003848260208601610f9e565b91505092915050565b61101581610b8b565b811461101f575f5ffd5b50565b5f815190506110308161100c565b92915050565b60048110611042575f5ffd5b50565b5f8151905061105381611036565b92915050565b60088110611065575f5ffd5b50565b5f8151905061107681611059565b92915050565b5f60c0828403121561109157611090610f54565b5b61109b60c0610f0b565b90505f82015167ffffffffffffffff8111156110ba576110b9610f58565b5b6110c684828501610fdf565b5f8301525060206110d984828501611022565b602083015250604082015167ffffffffffffffff8111156110fd576110fc610f58565b5b61110984828501610fdf565b604083015250606061111d84828501611022565b606083015250608061113184828501611045565b60808301525060a061114584828501611068565b60a08301525092915050565b5f61116361115e84610f25565b610f0b565b9050808382526020820190506020840283018581111561118657611185610f50565b5b835b818110156111cd57805167ffffffffffffffff8111156111ab576111aa610ec6565b5b8086016111b8898261107c565b85526020850194505050602081019050611188565b5050509392505050565b5f82601f8301126111eb576111ea610ec6565b5b81516111fb848260208601611151565b91505092915050565b5f60208284031215611219576112186109a3565b5b5f82015167ffffffffffffffff811115611236576112356109a7565b5b611242848285016111d7565b91505092915050565b7f4e487b71000000000000000000000000000000000000000000000000000000005f52603260045260245ffd5b5f611282826109ab565b915060ff820361129557611294610d85565b5b600182019050919050565b7f4e487b71000000000000000000000000000000000000000000000000000000005f52602160045260245ffd5b6112d681610b8b565b82525050565b5f6060820190506112ef5f830186610e9e565b6112fc60208301856112cd565b61130960408301846112cd565b949350505050565b5f6020820190506113245f8301846112cd565b92915050565b5f611334826109ab565b915061133f836109ab565b9250828201905060ff81111561135857611357610d85565b5b92915050565b5f81519050919050565b5f819050815f5260205f209050919050565b601f8211156113bb5761138c81611368565b61139584610b1f565b810160208510156113a4578190505b6113b86113b085610b1f565b830182610c0b565b50505b505050565b6113c98261135e565b67ffffffffffffffff8111156113e2576113e1610a83565b5b6113ec8254610add565b6113f782828561137a565b5f60209050601f831160018114611428575f8415611416578287015190505b6114208582610c9b565b865550611487565b601f19841661143686611368565b5f5b8281101561145d57848901518255600182019150602085019450602081019050611438565b8683101561147a5784890151611476601f891682610c7f565b8355505b6001600288020188555050505b505050505050565b616fc98061149c5f395ff3fe608060405234801561000f575f5ffd5b5060043610610204575f3560e01c806395d89b4111610118578063cd2385b9116100ab578063e6fb39ba1161007a578063e6fb39ba1461068a578063e7b5852f146106a6578063e9488e66146106d6578063edaf4c7914610706578063ffa8a1781461073b57610204565b8063cd2385b9146105db578063ce48d30d146105f7578063dd62ed3e14610627578063e114cf251461065757610204565b8063a9059cbb116100e7578063a9059cbb14610557578063ad3898ed14610587578063c739e6ee146105a3578063cc94a51b146105bf57610204565b806395d89b41146104d1578063a28737b5146104ef578063a306f8891461050b578063a6cd56e51461052757610204565b806340c10f191161019b57806370a082311161016a57806370a08231146103ea57806376187d1f1461041a5780637f4a55d41461044a5780638268d1a71461047e578063946b6306146104b557610204565b806340c10f191461033e5780635580f72a1461035a5780635fb212dd1461038a5780636228d037146103ba57610204565b806323b872dd116101d757806323b872dd146102a4578063313ce567146102d4578063336d755f146102f25780633f49b4521461030e57610204565b806306fdde0314610208578063095ea7b31461022657806311210fe71461025657806318160ddd14610286575b5f5ffd5b61021061076b565b60405161021d9190614ed5565b60405180910390f35b610240600480360381019061023b9190614f93565b6107fb565b60405161024d9190614feb565b60405180910390f35b610270600480360381019061026b919061503a565b61081d565b60405161027d9190615074565b60405180910390f35b61028e61084d565b60405161029b919061509c565b60405180910390f35b6102be60048036038101906102b991906150b5565b610856565b6040516102cb9190614feb565b60405180910390f35b6102dc610884565b6040516102e99190615114565b60405180910390f35b61030c60048036038101906103079190615150565b61088c565b005b610328600480360381019061032391906151d9565b610c63565b604051610335919061531d565b60405180910390f35b61035860048036038101906103539190614f93565b610de7565b005b610374600480360381019061036f91906151d9565b610df6565b604051610381919061509c565b60405180910390f35b6103a4600480360381019061039f9190615359565b610e0c565b6040516103b19190615114565b60405180910390f35b6103d460048036038101906103cf919061503a565b610e36565b6040516103e19190615114565b60405180910390f35b61040460048036038101906103ff91906151d9565b610e53565b604051610411919061509c565b60405180910390f35b610434600480360381019061042f919061503a565b610e98565b6040516104419190615506565b60405180910390f35b610464600480360381019061045f9190615520565b61102c565b604051610475959493929190615652565b60405180910390f35b6104986004803603810190610493919061503a565b611193565b6040516104ac989796959493929190615783565b60405180910390f35b6104cf60048036038101906104ca919061580d565b611329565b005b6104d9611750565b6040516104e69190614ed5565b60405180910390f35b61050960048036038101906105049190615875565b6117e0565b005b6105256004803603810190610520919061580d565b6118d2565b005b610541600480360381019061053c91906151d9565b611c82565b60405161054e919061531d565b60405180910390f35b610571600480360381019061056c9190614f93565b611e06565b60405161057e9190614feb565b60405180910390f35b6105a1600480360381019061059c9190615a05565b611e28565b005b6105bd60048036038101906105b89190615a5f565b611e79565b005b6105d960048036038101906105d49190615aaf565b6120ef565b005b6105f560048036038101906105f09190615a5f565b6123d3565b005b610611600480360381019061060c9190615aff565b61289f565b60405161061e9190615114565b60405180910390f35b610641600480360381019061063c9190615b3d565b612925565b60405161064e919061509c565b60405180910390f35b610671600480360381019061066c9190615520565b6129a7565b6040516106819493929190615bd0565b60405180910390f35b6106a4600480360381019061069f919061580d565b612a2b565b005b6106c060048036038101906106bb91906151d9565b612d89565b6040516106cd9190615de8565b60405180910390f35b6106f060048036038101906106eb919061503a565b613115565b6040516106fd9190615074565b60405180910390f35b610720600480360381019061071b91906151d9565b613364565b60405161073296959493929190615e08565b60405180910390f35b6107556004803603810190610750919061503a565b613401565b6040516107629190615f1b565b60405180910390f35b60606003805461077a90615f68565b80601f01602080910402602001604051908101604052809291908181526020018280546107a690615f68565b80156107f15780601f106107c8576101008083540402835291602001916107f1565b820191905f5260205f20905b8154815290600101906020018083116107d457829003601f168201915b5050505050905090565b5f5f61080561364e565b9050610812818585613655565b600191505092915050565b6007602052805f5260405f205f915054906101000a900473ffffffffffffffffffffffffffffffffffffffff1681565b5f600254905090565b5f5f61086061364e565b905061086d858285613667565b6108788585856136fa565b60019150509392505050565b5f6012905090565b5f60075f8660ff1660ff1681526020019081526020015f205f9054906101000a900473ffffffffffffffffffffffffffffffffffffffff1690508673ffffffffffffffffffffffffffffffffffffffff168173ffffffffffffffffffffffffffffffffffffffff1614610934576040517f08c379a000000000000000000000000000000000000000000000000000000000815260040161092b90616008565b60405180910390fd5b60085f8660ff1681526020019081526020015f205f9054906101000a900460ff1615610995576040517f08c379a000000000000000000000000000000000000000000000000000000000815260040161098c90616070565b60405180910390fd5b5f8460ff161115610a025760085f8560ff1681526020019081526020015f205f9054906101000a900460ff1615610a01576040517f08c379a00000000000000000000000000000000000000000000000000000000081526004016109f8906160fe565b60405180910390fd5b5b600160115f828254610a149190616149565b925050819055505f600f5f60115481526020019081526020015f209050838160010160146101000a81548160ff02191690836004811115610a5857610a57615222565b5b021790555086816001015f6101000a81548173ffffffffffffffffffffffffffffffffffffffff021916908373ffffffffffffffffffffffffffffffffffffffff16021790555087815f015f6101000a81548173ffffffffffffffffffffffffffffffffffffffff021916908373ffffffffffffffffffffffffffffffffffffffff1602179055505f6004811115610af357610af2615222565b5b8160010160149054906101000a900460ff166004811115610b1757610b16615222565b5b14610c205760016004811115610b3057610b2f615222565b5b8160010160149054906101000a900460ff166004811115610b5457610b53615222565b5b14610c0c5760026004811115610b6d57610b6c615222565b5b8160010160149054906101000a900460ff166004811115610b9157610b90615222565b5b14610bf85760036004811115610baa57610ba9615222565b5b8160010160149054906101000a900460ff166004811115610bce57610bcd615222565b5b14610be557610be060115484876137ea565b610bf3565b610bf2601154878561382c565b5b610c07565b610c06601154878588613870565b5b610c1b565b610c1a6011548787866138d4565b5b610c2e565b610c2d6011548787613938565b5b600160135f60115481526020019081526020015f205f6101000a81548160ff0219169083151502179055505050505050505050565b610c6b614c8c565b5f600e5f8473ffffffffffffffffffffffffffffffffffffffff1673ffffffffffffffffffffffffffffffffffffffff1681526020019081526020015f209050806040518060c00160405290815f82015f9054906101000a900473ffffffffffffffffffffffffffffffffffffffff1673ffffffffffffffffffffffffffffffffffffffff1673ffffffffffffffffffffffffffffffffffffffff168152602001600182015f9054906101000a900473ffffffffffffffffffffffffffffffffffffffff1673ffffffffffffffffffffffffffffffffffffffff1673ffffffffffffffffffffffffffffffffffffffff1681526020016001820160149054906101000a900460ff1660ff1660ff1681526020016001820160159054906101000a900460ff1660ff1660ff1681526020016001820160169054906101000a900460ff166004811115610dbf57610dbe615222565b5b6004811115610dd157610dd0615222565b5b8152602001600282015481525050915050919050565b610df23083836136fa565b5050565b5f5f610e0183610e53565b905080915050919050565b600a602052815f5260405f20602052805f5260405f205f915091509054906101000a900460ff1681565b6010602052805f5260405f205f915054906101000a900460ff1681565b5f5f5f8373ffffffffffffffffffffffffffffffffffffffff1673ffffffffffffffffffffffffffffffffffffffff1681526020019081526020015f20549050919050565b610ea0614d00565b60125f8360ff1681526020019081526020015f206040518060a00160405290815f82016040518060400160405290815f8201548152602001600182015f9054906101000a900460ff1660ff1660ff16815250508152602001600282016040518060400160405290815f82015f9054906101000a900460ff1660ff1660ff1681526020016001820154815250508152602001600482016040518060600160405290815f82015f9054906101000a900460ff1660ff1660ff16815260200160018201548152602001600282015f9054906101000a900460ff1660ff1660ff16815250508152602001600782016040518060600160405290815f82015f9054906101000a900460ff1660ff1660ff1681526020015f820160019054906101000a900460ff1660ff1660ff1681526020016001820154815250508152602001600982016040518060400160405290815f82015f9054906101000a900460ff1660ff1660ff1681526020015f820160019054906101000a900460ff1660ff1660ff1681525050815250509050919050565b6012602052805f5260405f205f91509050805f016040518060400160405290815f8201548152602001600182015f9054906101000a900460ff1660ff1660ff168152505090806002016040518060400160405290815f82015f9054906101000a900460ff1660ff1660ff16815260200160018201548152505090806004016040518060600160405290815f82015f9054906101000a900460ff1660ff1660ff16815260200160018201548152602001600282015f9054906101000a900460ff1660ff1660ff168152505090806007016040518060600160405290815f82015f9054906101000a900460ff1660ff1660ff1681526020015f820160019054906101000a900460ff1660ff1660ff16815260200160018201548152505090806009016040518060400160405290815f82015f9054906101000a900460ff1660ff1660ff1681526020015f820160019054906101000a900460ff1660ff1660ff1681525050905085565b600d602052805f5260405f205f91509050805f0180546111b290615f68565b80601f01602080910402602001604051908101604052809291908181526020018280546111de90615f68565b80156112295780601f1061120057610100808354040283529160200191611229565b820191905f5260205f20905b81548152906001019060200180831161120c57829003601f168201915b50505050509080600101805461123e90615f68565b80601f016020809104026020016040519081016040528092919081815260200182805461126a90615f68565b80156112b55780601f1061128c576101008083540402835291602001916112b5565b820191905f5260205f20905b81548152906001019060200180831161129857829003601f168201915b505050505090806002015490806003015490806004015f9054906101000a900473ffffffffffffffffffffffffffffffffffffffff16908060040160149054906101000a900460ff16908060040160159054906101000a900460ff16908060040160169054906101000a900460ff16905088565b61133161398f565b5f600d5f8460ff1660ff1681526020019081526020015f20905060038081111561135e5761135d615222565b5b8160040160159054906101000a900460ff16600381111561138257611381615222565b5b036113c2576040517f08c379a00000000000000000000000000000000000000000000000000000000081526004016113b9906161ec565b60405180910390fd5b8173ffffffffffffffffffffffffffffffffffffffff16816004015f9054906101000a900473ffffffffffffffffffffffffffffffffffffffff1673ffffffffffffffffffffffffffffffffffffffff1603611453576040517f08c379a000000000000000000000000000000000000000000000000000000000815260040161144a90616254565b60405180910390fd5b806002015461146183610e53565b10156114a2576040517f08c379a0000000000000000000000000000000000000000000000000000000008152600401611499906162bc565b60405180910390fd5b3073ffffffffffffffffffffffffffffffffffffffff16816004015f9054906101000a900473ffffffffffffffffffffffffffffffffffffffff1673ffffffffffffffffffffffffffffffffffffffff1614611533576040517f08c379a000000000000000000000000000000000000000000000000000000000815260040161152a90616324565b60405180910390fd5b611542823083600201546136fa565b81816004015f6101000a81548173ffffffffffffffffffffffffffffffffffffffff021916908373ffffffffffffffffffffffffffffffffffffffff1602179055508160075f8560ff1660ff1681526020019081526020015f205f6101000a81548173ffffffffffffffffffffffffffffffffffffffff021916908373ffffffffffffffffffffffffffffffffffffffff1602179055506001600a5f8360040160169054906101000a900460ff16600781111561160257611601615222565b5b600781111561161457611613615222565b5b81526020019081526020015f205f8473ffffffffffffffffffffffffffffffffffffffff1673ffffffffffffffffffffffffffffffffffffffff1681526020019081526020015f205f8282829054906101000a900460ff166116769190616342565b92506101000a81548160ff021916908360ff160217905550600160038111156116a2576116a1615222565b5b8160040160159054906101000a900460ff1660038111156116c6576116c5615222565b5b146116d1575f611742565b600160145f8473ffffffffffffffffffffffffffffffffffffffff1673ffffffffffffffffffffffffffffffffffffffff1681526020019081526020015f205f8282829054906101000a900460ff1661172a9190616342565b92506101000a81548160ff021916908360ff16021790555b505061174c6139d5565b5050565b60606004805461175f90615f68565b80601f016020809104026020016040519081016040528092919081815260200182805461178b90615f68565b80156117d65780601f106117ad576101008083540402835291602001916117d6565b820191905f5260205f20905b8154815290600101906020018083116117b957829003601f168201915b5050505050905090565b6117e861398f565b60135f8381526020019081526020015f205f9054906101000a900460ff16611845576040517f08c379a000000000000000000000000000000000000000000000000000000000815260040161183c906163c0565b60405180910390fd5b5f600f5f8481526020019081526020015f209050811561186e5761186984846139df565b61189c565b60028160010160156101000a81548160ff0219169083600281111561189657611895615222565b5b02179055505b5f60135f8581526020019081526020015f205f6101000a81548160ff021916908315150217905550506118cd6139d5565b505050565b6118da61398f565b5f600d5f8460ff1660ff1681526020019081526020015f20604051806101000160405290815f8201805461190d90615f68565b80601f016020809104026020016040519081016040528092919081815260200182805461193990615f68565b80156119845780601f1061195b57610100808354040283529160200191611984565b820191905f5260205f20905b81548152906001019060200180831161196757829003601f168201915b5050505050815260200160018201805461199d90615f68565b80601f01602080910402602001604051908101604052809291908181526020018280546119c990615f68565b8015611a145780601f106119eb57610100808354040283529160200191611a14565b820191905f5260205f20905b8154815290600101906020018083116119f757829003601f168201915b505050505081526020016002820154815260200160038201548152602001600482015f9054906101000a900473ffffffffffffffffffffffffffffffffffffffff1673ffffffffffffffffffffffffffffffffffffffff1673ffffffffffffffffffffffffffffffffffffffff1681526020016004820160149054906101000a900460ff1660ff1660ff1681526020016004820160159054906101000a900460ff166003811115611ac857611ac7615222565b5b6003811115611ada57611ad9615222565b5b81526020016004820160169054906101000a900460ff166007811115611b0357611b02615222565b5b6007811115611b1557611b14615222565b5b81525050905060085f8460ff1681526020019081526020015f205f9054906101000a900460ff1615611b7c576040517f08c379a0000000000000000000000000000000000000000000000000000000008152600401611b7390616428565b60405180910390fd5b8173ffffffffffffffffffffffffffffffffffffffff16816080015173ffffffffffffffffffffffffffffffffffffffff1614611bee576040517f08c379a0000000000000000000000000000000000000000000000000000000008152600401611be5906164b6565b60405180910390fd5b600160085f8560ff1681526020019081526020015f205f6101000a81548160ff0219169083151502179055505f60028260400151611c2c9190616501565b9050611c393084836136fa565b7f8552ced5fbb1a781ce2c5187234a08187f534e832528683f5f9f4ebbc8265e0b848285604051611c6c9392919061656a565b60405180910390a15050611c7e6139d5565b5050565b611c8a614c8c565b5f600e5f8473ffffffffffffffffffffffffffffffffffffffff1673ffffffffffffffffffffffffffffffffffffffff1681526020019081526020015f206040518060c00160405290815f82015f9054906101000a900473ffffffffffffffffffffffffffffffffffffffff1673ffffffffffffffffffffffffffffffffffffffff1673ffffffffffffffffffffffffffffffffffffffff168152602001600182015f9054906101000a900473ffffffffffffffffffffffffffffffffffffffff1673ffffffffffffffffffffffffffffffffffffffff1673ffffffffffffffffffffffffffffffffffffffff1681526020016001820160149054906101000a900460ff1660ff1660ff1681526020016001820160159054906101000a900460ff1660ff1660ff1681526020016001820160169054906101000a900460ff166004811115611ddb57611dda615222565b5b6004811115611ded57611dec615222565b5b8152602001600282015481525050905080915050919050565b5f5f611e1061364e565b9050611e1d8185856136fa565b600191505092915050565b5f5f90505b82518160ff161015611e7457611e6130848360ff1681518110611e5357611e5261659f565b5b6020026020010151846136fa565b8080611e6c906165cc565b915050611e2d565b505050565b5f600d5f8560ff1660ff1681526020019081526020015f2090508173ffffffffffffffffffffffffffffffffffffffff16816004015f9054906101000a900473ffffffffffffffffffffffffffffffffffffffff1673ffffffffffffffffffffffffffffffffffffffff1614611f24576040517f08c379a0000000000000000000000000000000000000000000000000000000008152600401611f1b906164b6565b60405180910390fd5b5f8160040160149054906101000a900460ff1660ff1611611f7a576040517f08c379a0000000000000000000000000000000000000000000000000000000008152600401611f719061663e565b60405180910390fd5b5f8360ff16118015611fa357508060040160149054906101000a900460ff1660ff168360ff1611155b611fe2576040517f08c379a0000000000000000000000000000000000000000000000000000000008152600401611fd9906166a6565b60405180910390fd5b60085f8560ff1681526020019081526020015f205f9054906101000a900460ff1615612043576040517f08c379a000000000000000000000000000000000000000000000000000000000815260040161203a90616734565b60405180910390fd5b5f6001846120519190616752565b600261205d91906168b5565b826002015461206c91906168ff565b90506120793084836136fa565b838260040160148282829054906101000a900460ff166120999190616752565b92506101000a81548160ff021916908360ff1602179055507fd59433e14b54c583da535c728efbd3ef0c76b4d6e21ea9c70dbc2525308c4350856040516120e09190616940565b60405180910390a15050505050565b6120f761398f565b60085f8360ff1681526020019081526020015f205f9054906101000a900460ff1615612158576040517f08c379a000000000000000000000000000000000000000000000000000000000815260040161214f906169a3565b60405180910390fd5b5f600d5f8460ff1660ff1681526020019081526020015f2090503073ffffffffffffffffffffffffffffffffffffffff16816004015f9054906101000a900473ffffffffffffffffffffffffffffffffffffffff1673ffffffffffffffffffffffffffffffffffffffff1603612203576040517f08c379a00000000000000000000000000000000000000000000000000000000081526004016121fa90616a0b565b60405180910390fd5b8373ffffffffffffffffffffffffffffffffffffffff16816004015f9054906101000a900473ffffffffffffffffffffffffffffffffffffffff1673ffffffffffffffffffffffffffffffffffffffff1603612294576040517f08c379a000000000000000000000000000000000000000000000000000000000815260040161228b90616a99565b60405180910390fd5b5f600260038111156122a9576122a8615222565b5b8260040160159054906101000a900460ff1660038111156122cd576122cc615222565b5b036122e6576122df848460ff16613e27565b9050612396565b600160038111156122fa576122f9615222565b5b8260040160159054906101000a900460ff16600381111561231e5761231d615222565b5b036123335761232c84613f3f565b9050612395565b5f8260040160149054906101000a900460ff1660ff1611612358578160030154612392565b60018260040160149054906101000a900460ff166123769190616752565b600261238291906168b5565b826003015461239191906168ff565b5b90505b5b6123c485836004015f9054906101000a900473ffffffffffffffffffffffffffffffffffffffff16836136fa565b50506123ce6139d5565b505050565b5f600d5f8560ff1660ff1681526020019081526020015f2090508173ffffffffffffffffffffffffffffffffffffffff16816004015f9054906101000a900473ffffffffffffffffffffffffffffffffffffffff1673ffffffffffffffffffffffffffffffffffffffff161461247e576040517f08c379a0000000000000000000000000000000000000000000000000000000008152600401612475906164b6565b60405180910390fd5b60085f8560ff1681526020019081526020015f205f9054906101000a900460ff16156124df576040517f08c379a00000000000000000000000000000000000000000000000000000000081526004016124d690616b27565b60405180910390fd5b5f60038111156124f2576124f1615222565b5b8160040160159054906101000a900460ff16600381111561251657612515615222565b5b14612556576040517f08c379a000000000000000000000000000000000000000000000000000000000815260040161254d90616b8f565b60405180910390fd5b5f8360ff1611801561256c575060058360ff1611155b6125ab576040517f08c379a00000000000000000000000000000000000000000000000000000000081526004016125a290616bd0565b60405180910390fd5b5f600b5f8360040160169054906101000a900460ff1660078111156125d3576125d2615222565b5b60078111156125e5576125e4615222565b5b81526020019081526020015f205f9054906101000a900460ff1690505f600a5f8460040160169054906101000a900460ff16600781111561262957612628615222565b5b600781111561263b5761263a615222565b5b81526020019081526020015f205f8573ffffffffffffffffffffffffffffffffffffffff1673ffffffffffffffffffffffffffffffffffffffff1681526020019081526020015f205f9054906101000a900460ff1690508160ff168160ff1610156126db576040517f08c379a00000000000000000000000000000000000000000000000000000000081526004016126d290616c5e565b60405180910390fd5b60058360040160149054906101000a900460ff1660ff1610612732576040517f08c379a000000000000000000000000000000000000000000000000000000000815260040161272990616cec565b60405180910390fd5b5f858460040160149054906101000a900460ff166127509190616342565b905060058160ff161115612799576040517f08c379a000000000000000000000000000000000000000000000000000000000815260040161279090616d54565b60405180910390fd5b5f6001826127a79190616752565b60026127b391906168b5565b60026127bf91906168ff565b85600201546127ce91906168ff565b9050806127da87610e53565b101561281b576040517f08c379a000000000000000000000000000000000000000000000000000000000815260040161281290616de2565b60405180910390fd5b6128268630836136fa565b868560040160148282829054906101000a900460ff166128469190616342565b92506101000a81548160ff021916908360ff1602179055507f376f985bc0db3d156870ab8ee6abcef525170dc382e193467ff13fa50ca6b2688860405161288d9190616940565b60405180910390a15050505050505050565b5f600a5f8360078111156128b6576128b5615222565b5b60078111156128c8576128c7615222565b5b81526020019081526020015f205f8473ffffffffffffffffffffffffffffffffffffffff1673ffffffffffffffffffffffffffffffffffffffff1681526020019081526020015f205f9054906101000a900460ff16905092915050565b5f60015f8473ffffffffffffffffffffffffffffffffffffffff1673ffffffffffffffffffffffffffffffffffffffff1681526020019081526020015f205f8373ffffffffffffffffffffffffffffffffffffffff1673ffffffffffffffffffffffffffffffffffffffff1681526020019081526020015f2054905092915050565b600f602052805f5260405f205f91509050805f015f9054906101000a900473ffffffffffffffffffffffffffffffffffffffff1690806001015f9054906101000a900473ffffffffffffffffffffffffffffffffffffffff16908060010160149054906101000a900460ff16908060010160159054906101000a900460ff16905084565b5f600d5f8460ff1660ff1681526020019081526020015f20604051806101000160405290815f82018054612a5e90615f68565b80601f0160208091040260200160405190810160405280929190818152602001828054612a8a90615f68565b8015612ad55780601f10612aac57610100808354040283529160200191612ad5565b820191905f5260205f20905b815481529060010190602001808311612ab857829003601f168201915b50505050508152602001600182018054612aee90615f68565b80601f0160208091040260200160405190810160405280929190818152602001828054612b1a90615f68565b8015612b655780601f10612b3c57610100808354040283529160200191612b65565b820191905f5260205f20905b815481529060010190602001808311612b4857829003601f168201915b505050505081526020016002820154815260200160038201548152602001600482015f9054906101000a900473ffffffffffffffffffffffffffffffffffffffff1673ffffffffffffffffffffffffffffffffffffffff1673ffffffffffffffffffffffffffffffffffffffff1681526020016004820160149054906101000a900460ff1660ff1660ff1681526020016004820160159054906101000a900460ff166003811115612c1957612c18615222565b5b6003811115612c2b57612c2a615222565b5b81526020016004820160169054906101000a900460ff166007811115612c5457612c53615222565b5b6007811115612c6657612c65615222565b5b8152505090508173ffffffffffffffffffffffffffffffffffffffff16816080015173ffffffffffffffffffffffffffffffffffffffff1614612cde576040517f08c379a0000000000000000000000000000000000000000000000000000000008152600401612cd5906164b6565b60405180910390fd5b60085f8460ff1681526020019081526020015f205f9054906101000a900460ff16612d3e576040517f08c379a0000000000000000000000000000000000000000000000000000000008152600401612d3590616e4a565b60405180910390fd5b612d59823060028460400151612d549190616501565b6136fa565b5f60085f8560ff1681526020019081526020015f205f6101000a81548160ff021916908315150217905550505050565b60605f600c60149054906101000a900460ff1660ff1667ffffffffffffffff811115612db857612db76158c9565b5b604051908082528060200260200182016040528015612df157816020015b612dde614d4d565b815260200190600190039081612dd65790505b5090505f5f90505f600190505b600c60149054906101000a900460ff1660ff168160ff1611613107578473ffffffffffffffffffffffffffffffffffffffff16600d5f8360ff1660ff1681526020019081526020015f206004015f9054906101000a900473ffffffffffffffffffffffffffffffffffffffff1673ffffffffffffffffffffffffffffffffffffffff16036130f457600d5f8260ff1660ff1681526020019081526020015f20604051806101000160405290815f82018054612eb890615f68565b80601f0160208091040260200160405190810160405280929190818152602001828054612ee490615f68565b8015612f2f5780601f10612f0657610100808354040283529160200191612f2f565b820191905f5260205f20905b815481529060010190602001808311612f1257829003601f168201915b50505050508152602001600182018054612f4890615f68565b80601f0160208091040260200160405190810160405280929190818152602001828054612f7490615f68565b8015612fbf5780601f10612f9657610100808354040283529160200191612fbf565b820191905f5260205f20905b815481529060010190602001808311612fa257829003601f168201915b505050505081526020016002820154815260200160038201548152602001600482015f9054906101000a900473ffffffffffffffffffffffffffffffffffffffff1673ffffffffffffffffffffffffffffffffffffffff1673ffffffffffffffffffffffffffffffffffffffff1681526020016004820160149054906101000a900460ff1660ff1660ff1681526020016004820160159054906101000a900460ff16600381111561307357613072615222565b5b600381111561308557613084615222565b5b81526020016004820160169054906101000a900460ff1660078111156130ae576130ad615222565b5b60078111156130c0576130bf615222565b5b81525050838360ff16815181106130da576130d961659f565b5b602002602001018190525081806130f0906165cc565b9250505b80806130ff906165cc565b915050612dfe565b508082528192505050919050565b5f5f600d5f8460ff1660ff1681526020019081526020015f20604051806101000160405290815f8201805461314990615f68565b80601f016020809104026020016040519081016040528092919081815260200182805461317590615f68565b80156131c05780601f10613197576101008083540402835291602001916131c0565b820191905f5260205f20905b8154815290600101906020018083116131a357829003601f168201915b505050505081526020016001820180546131d990615f68565b80601f016020809104026020016040519081016040528092919081815260200182805461320590615f68565b80156132505780601f1061322757610100808354040283529160200191613250565b820191905f5260205f20905b81548152906001019060200180831161323357829003601f168201915b505050505081526020016002820154815260200160038201548152602001600482015f9054906101000a900473ffffffffffffffffffffffffffffffffffffffff1673ffffffffffffffffffffffffffffffffffffffff1673ffffffffffffffffffffffffffffffffffffffff1681526020016004820160149054906101000a900460ff1660ff1660ff1681526020016004820160159054906101000a900460ff16600381111561330457613303615222565b5b600381111561331657613315615222565b5b81526020016004820160169054906101000a900460ff16600781111561333f5761333e615222565b5b600781111561335157613350615222565b5b8152505090508060800151915050919050565b600e602052805f5260405f205f91509050805f015f9054906101000a900473ffffffffffffffffffffffffffffffffffffffff1690806001015f9054906101000a900473ffffffffffffffffffffffffffffffffffffffff16908060010160149054906101000a900460ff16908060010160159054906101000a900460ff16908060010160169054906101000a900460ff16908060020154905086565b613409614d4d565b600d5f8360ff1660ff1681526020019081526020015f20604051806101000160405290815f8201805461343b90615f68565b80601f016020809104026020016040519081016040528092919081815260200182805461346790615f68565b80156134b25780601f10613489576101008083540402835291602001916134b2565b820191905f5260205f20905b81548152906001019060200180831161349557829003601f168201915b505050505081526020016001820180546134cb90615f68565b80601f01602080910402602001604051908101604052809291908181526020018280546134f790615f68565b80156135425780601f1061351957610100808354040283529160200191613542565b820191905f5260205f20905b81548152906001019060200180831161352557829003601f168201915b505050505081526020016002820154815260200160038201548152602001600482015f9054906101000a900473ffffffffffffffffffffffffffffffffffffffff1673ffffffffffffffffffffffffffffffffffffffff1673ffffffffffffffffffffffffffffffffffffffff1681526020016004820160149054906101000a900460ff1660ff1660ff1681526020016004820160159054906101000a900460ff1660038111156135f6576135f5615222565b5b600381111561360857613607615222565b5b81526020016004820160169054906101000a900460ff16600781111561363157613630615222565b5b600781111561364357613642615222565b5b815250509050919050565b5f33905090565b6136628383836001613ff5565b505050565b5f6136728484612925565b90507fffffffffffffffffffffffffffffffffffffffffffffffffffffffffffffffff8110156136f457818110156136e5578281836040517ffb8f41b20000000000000000000000000000000000000000000000000000000081526004016136dc93929190616e68565b60405180910390fd5b6136f384848484035f613ff5565b5b50505050565b5f73ffffffffffffffffffffffffffffffffffffffff168373ffffffffffffffffffffffffffffffffffffffff160361376a575f6040517f96c6fd1e0000000000000000000000000000000000000000000000000000000081526004016137619190615074565b60405180910390fd5b5f73ffffffffffffffffffffffffffffffffffffffff168273ffffffffffffffffffffffffffffffffffffffff16036137da575f6040517fec442f050000000000000000000000000000000000000000000000000000000081526004016137d19190615074565b60405180910390fd5b6137e58383836141c4565b505050565b5f60125f8581526020019081526020015f20905082815f015f018190555081815f016001015f6101000a81548160ff021916908360ff16021790555050505050565b5f60125f8581526020019081526020015f20905082816002015f015f6101000a81548160ff021916908360ff16021790555081816002016001018190555050505050565b5f60125f8681526020019081526020015f20905083816004015f015f6101000a81548160ff021916908360ff16021790555082816004016001018190555081816004016002015f6101000a81548160ff021916908360ff1602179055505050505050565b5f60125f8681526020019081526020015f20905083816007015f015f6101000a81548160ff021916908360ff16021790555082816007015f0160016101000a81548160ff021916908360ff1602179055508181600701600101819055505050505050565b5f60125f8581526020019081526020015f20905082816009015f015f6101000a81548160ff021916908360ff16021790555081816009015f0160016101000a81548160ff021916908360ff16021790555050505050565b6002600554036139cb576040517f3ee5aeb500000000000000000000000000000000000000000000000000000000815260040160405180910390fd5b6002600581905550565b6001600581905550565b5f600f5f8381526020019081526020015f2090505f60125f8481526020019081526020015f206040518060a00160405290815f82016040518060400160405290815f8201548152602001600182015f9054906101000a900460ff1660ff1660ff16815250508152602001600282016040518060400160405290815f82015f9054906101000a900460ff1660ff1660ff1681526020016001820154815250508152602001600482016040518060600160405290815f82015f9054906101000a900460ff1660ff1660ff16815260200160018201548152602001600282015f9054906101000a900460ff1660ff1660ff16815250508152602001600782016040518060600160405290815f82015f9054906101000a900460ff1660ff1660ff1681526020015f820160019054906101000a900460ff1660ff1660ff1681526020016001820154815250508152602001600982016040518060400160405290815f82015f9054906101000a900460ff1660ff1660ff1681526020015f820160019054906101000a900460ff1660ff1660ff16815250508152505090508373ffffffffffffffffffffffffffffffffffffffff16826001015f9054906101000a900473ffffffffffffffffffffffffffffffffffffffff1673ffffffffffffffffffffffffffffffffffffffff1614613c09576040517f08c379a0000000000000000000000000000000000000000000000000000000008152600401613c0090616ee7565b60405180910390fd5b5f6004811115613c1c57613c1b615222565b5b8260010160149054906101000a900460ff166004811115613c4057613c3f615222565b5b14613dc65760036004811115613c5957613c58615222565b5b8260010160149054906101000a900460ff166004811115613c7d57613c7c615222565b5b14613d9357600480811115613c9557613c94615222565b5b8260010160149054906101000a900460ff166004811115613cb957613cb8615222565b5b14613d605760036004811115613cd257613cd1615222565b5b8260010160149054906101000a900460ff166004811115613cf657613cf5615222565b5b14613d2d57613d288185845f015f9054906101000a900473ffffffffffffffffffffffffffffffffffffffff166143dd565b613d5b565b613d5a8185845f015f9054906101000a900473ffffffffffffffffffffffffffffffffffffffff166144ca565b5b613d8e565b613d8d8185845f015f9054906101000a900473ffffffffffffffffffffffffffffffffffffffff166145b9565b5b613dc1565b613dc08185845f015f9054906101000a900473ffffffffffffffffffffffffffffffffffffffff16614730565b5b613df4565b613df38185845f015f9054906101000a900473ffffffffffffffffffffffffffffffffffffffff166148a7565b5b60018260010160156101000a81548160ff02191690836002811115613e1c57613e1b615222565b5b021790555050505050565b5f600d8360ff161480613e3d5750601d8360ff16145b613e7c576040517f08c379a0000000000000000000000000000000000000000000000000000000008152600401613e7390616bd0565b60405180910390fd5b60075f601d60ff1681526020019081526020015f205f9054906101000a900473ffffffffffffffffffffffffffffffffffffffff1673ffffffffffffffffffffffffffffffffffffffff1660075f600d60ff1681526020019081526020015f205f9054906101000a900473ffffffffffffffffffffffffffffffffffffffff1673ffffffffffffffffffffffffffffffffffffffff1614613f2957600482613f2491906168ff565b613f37565b600a82613f3691906168ff565b5b905092915050565b5f5f60075f8460ff1660ff1681526020019081526020015f205f9054906101000a900473ffffffffffffffffffffffffffffffffffffffff1690505f60145f8373ffffffffffffffffffffffffffffffffffffffff1673ffffffffffffffffffffffffffffffffffffffff1681526020019081526020015f205f9054906101000a900460ff169050600181613fd49190616752565b6002613fe091906168b5565b6019613fec91906168ff565b92505050919050565b5f73ffffffffffffffffffffffffffffffffffffffff168473ffffffffffffffffffffffffffffffffffffffff1603614065575f6040517fe602df0500000000000000000000000000000000000000000000000000000000815260040161405c9190615074565b60405180910390fd5b5f73ffffffffffffffffffffffffffffffffffffffff168373ffffffffffffffffffffffffffffffffffffffff16036140d5575f6040517f94280d620000000000000000000000000000000000000000000000000000000081526004016140cc9190615074565b60405180910390fd5b8160015f8673ffffffffffffffffffffffffffffffffffffffff1673ffffffffffffffffffffffffffffffffffffffff1681526020019081526020015f205f8573ffffffffffffffffffffffffffffffffffffffff1673ffffffffffffffffffffffffffffffffffffffff1681526020019081526020015f208190555080156141be578273ffffffffffffffffffffffffffffffffffffffff168473ffffffffffffffffffffffffffffffffffffffff167f8c5be1e5ebec7d5bd14f71427d1e84f3dd0314c0f7b2291e5b200ac8c7c3b925846040516141b5919061509c565b60405180910390a35b50505050565b5f73ffffffffffffffffffffffffffffffffffffffff168373ffffffffffffffffffffffffffffffffffffffff1603614214578060025f8282546142089190616149565b925050819055506142e2565b5f5f5f8573ffffffffffffffffffffffffffffffffffffffff1673ffffffffffffffffffffffffffffffffffffffff1681526020019081526020015f205490508181101561429d578381836040517fe450d38c00000000000000000000000000000000000000000000000000000000815260040161429493929190616e68565b60405180910390fd5b8181035f5f8673ffffffffffffffffffffffffffffffffffffffff1673ffffffffffffffffffffffffffffffffffffffff1681526020019081526020015f2081905550505b5f73ffffffffffffffffffffffffffffffffffffffff168273ffffffffffffffffffffffffffffffffffffffff1603614329578060025f8282540392505081905550614373565b805f5f8473ffffffffffffffffffffffffffffffffffffffff1673ffffffffffffffffffffffffffffffffffffffff1681526020019081526020015f205f82825401925050819055505b8173ffffffffffffffffffffffffffffffffffffffff168373ffffffffffffffffffffffffffffffffffffffff167fddf252ad1be2c89b69c2b068fc378daa952ba7f163c4a11628f55a4df523b3ef836040516143d0919061509c565b60405180910390a3505050565b5f835f01515f015190505f845f0151602001519050816143fc84610e53565b101561443d576040517f08c379a000000000000000000000000000000000000000000000000000000000815260040161443490616bd0565b60405180910390fd5b6144488385846136fa565b5f600d5f8360ff1660ff1681526020019081526020015f2090508360075f8460ff1660ff1681526020019081526020015f205f6101000a81548173ffffffffffffffffffffffffffffffffffffffff021916908373ffffffffffffffffffffffffffffffffffffffff1602179055506144c28186866149bb565b505050505050565b5f83602001515f015190505f8460200151602001519050806144eb85610e53565b101561452c576040517f08c379a000000000000000000000000000000000000000000000000000000000815260040161452390616bd0565b60405180910390fd5b6145378484836136fa565b5f600d5f8460ff1660ff1681526020019081526020015f2090508460075f8560ff1660ff1681526020019081526020015f205f6101000a81548173ffffffffffffffffffffffffffffffffffffffff021916908373ffffffffffffffffffffffffffffffffffffffff1602179055506145b18185876149bb565b505050505050565b5f8360400151602001519050806145cf83610e53565b1015614610576040517f08c379a000000000000000000000000000000000000000000000000000000000815260040161460790616f75565b60405180910390fd5b61461b8284836136fa565b5f84604001515f015190505f85608001516020015190505f600d5f8460ff1660ff1681526020019081526020015f2090505f600d5f8460ff1660ff1681526020019081526020015f2090508560075f8560ff1660ff1681526020019081526020015f205f6101000a81548173ffffffffffffffffffffffffffffffffffffffff021916908373ffffffffffffffffffffffffffffffffffffffff1602179055508660075f8660ff1660ff1681526020019081526020015f205f6101000a81548173ffffffffffffffffffffffffffffffffffffffff021916908373ffffffffffffffffffffffffffffffffffffffff16021790555061471b8188886149bb565b6147268287896149bb565b5050505050505050565b5f83606001516040015190505f84606001515f015190505f85606001516020015190508261475d86610e53565b101561479e576040517f08c379a000000000000000000000000000000000000000000000000000000000815260040161479590616bd0565b60405180910390fd5b6147a98585856136fa565b5f600d5f8460ff1660ff1681526020019081526020015f2090505f600d5f8460ff1660ff1681526020019081526020015f2090508560075f8560ff1660ff1681526020019081526020015f205f6101000a81548173ffffffffffffffffffffffffffffffffffffffff021916908373ffffffffffffffffffffffffffffffffffffffff1602179055508660075f8660ff1660ff1681526020019081526020015f205f6101000a81548173ffffffffffffffffffffffffffffffffffffffff021916908373ffffffffffffffffffffffffffffffffffffffff1602179055506148928188886149bb565b61489d8287896149bb565b5050505050505050565b5f83608001515f015190505f84608001516020015190505f600d5f8460ff1660ff1681526020019081526020015f2090505f600d5f8460ff1660ff1681526020019081526020015f2090508460075f8560ff1660ff1681526020019081526020015f205f6101000a81548173ffffffffffffffffffffffffffffffffffffffff021916908373ffffffffffffffffffffffffffffffffffffffff1602179055508560075f8660ff1660ff1681526020019081526020015f205f6101000a81548173ffffffffffffffffffffffffffffffffffffffff021916908373ffffffffffffffffffffffffffffffffffffffff1602179055506149a78187876149bb565b6149b28286886149bb565b50505050505050565b80836004015f6101000a81548173ffffffffffffffffffffffffffffffffffffffff021916908373ffffffffffffffffffffffffffffffffffffffff1602179055506001600a5f8560040160169054906101000a900460ff166007811115614a2657614a25615222565b5b6007811115614a3857614a37615222565b5b81526020019081526020015f205f8473ffffffffffffffffffffffffffffffffffffffff1673ffffffffffffffffffffffffffffffffffffffff1681526020019081526020015f205f8282829054906101000a900460ff16614a9a9190616752565b92506101000a81548160ff021916908360ff1602179055506001600a5f8560040160169054906101000a900460ff166007811115614adb57614ada615222565b5b6007811115614aed57614aec615222565b5b81526020019081526020015f205f8373ffffffffffffffffffffffffffffffffffffffff1673ffffffffffffffffffffffffffffffffffffffff1681526020019081526020015f205f8282829054906101000a900460ff16614b4f9190616342565b92506101000a81548160ff021916908360ff16021790555060016003811115614b7b57614b7a615222565b5b8360040160159054906101000a900460ff166003811115614b9f57614b9e615222565b5b03614c8757600160145f8473ffffffffffffffffffffffffffffffffffffffff1673ffffffffffffffffffffffffffffffffffffffff1681526020019081526020015f205f8282829054906101000a900460ff16614bfd9190616752565b92506101000a81548160ff021916908360ff160217905550600160145f8373ffffffffffffffffffffffffffffffffffffffff1673ffffffffffffffffffffffffffffffffffffffff1681526020019081526020015f205f8282829054906101000a900460ff16614c6e9190616342565b92506101000a81548160ff021916908360ff1602179055505b505050565b6040518060c001604052805f73ffffffffffffffffffffffffffffffffffffffff1681526020015f73ffffffffffffffffffffffffffffffffffffffff1681526020015f60ff1681526020015f60ff1681526020015f6004811115614cf457614cf3615222565b5b81526020015f81525090565b6040518060a00160405280614d13614dc9565b8152602001614d20614de4565b8152602001614d2d614dff565b8152602001614d3a614e23565b8152602001614d47614e47565b81525090565b60405180610100016040528060608152602001606081526020015f81526020015f81526020015f73ffffffffffffffffffffffffffffffffffffffff1681526020015f60ff1681526020015f6003811115614dab57614daa615222565b5b81526020015f6007811115614dc357614dc2615222565b5b81525090565b60405180604001604052805f81526020015f60ff1681525090565b60405180604001604052805f60ff1681526020015f81525090565b60405180606001604052805f60ff1681526020015f81526020015f60ff1681525090565b60405180606001604052805f60ff1681526020015f60ff1681526020015f81525090565b60405180604001604052805f60ff1681526020015f60ff1681525090565b5f81519050919050565b5f82825260208201905092915050565b8281835e5f83830152505050565b5f601f19601f8301169050919050565b5f614ea782614e65565b614eb18185614e6f565b9350614ec1818560208601614e7f565b614eca81614e8d565b840191505092915050565b5f6020820190508181035f830152614eed8184614e9d565b905092915050565b5f604051905090565b5f5ffd5b5f5ffd5b5f73ffffffffffffffffffffffffffffffffffffffff82169050919050565b5f614f2f82614f06565b9050919050565b614f3f81614f25565b8114614f49575f5ffd5b50565b5f81359050614f5a81614f36565b92915050565b5f819050919050565b614f7281614f60565b8114614f7c575f5ffd5b50565b5f81359050614f8d81614f69565b92915050565b5f5f60408385031215614fa957614fa8614efe565b5b5f614fb685828601614f4c565b9250506020614fc785828601614f7f565b9150509250929050565b5f8115159050919050565b614fe581614fd1565b82525050565b5f602082019050614ffe5f830184614fdc565b92915050565b5f60ff82169050919050565b61501981615004565b8114615023575f5ffd5b50565b5f8135905061503481615010565b92915050565b5f6020828403121561504f5761504e614efe565b5b5f61505c84828501615026565b91505092915050565b61506e81614f25565b82525050565b5f6020820190506150875f830184615065565b92915050565b61509681614f60565b82525050565b5f6020820190506150af5f83018461508d565b92915050565b5f5f5f606084860312156150cc576150cb614efe565b5b5f6150d986828701614f4c565b93505060206150ea86828701614f4c565b92505060406150fb86828701614f7f565b9150509250925092565b61510e81615004565b82525050565b5f6020820190506151275f830184615105565b92915050565b60058110615139575f5ffd5b50565b5f8135905061514a8161512d565b92915050565b5f5f5f5f5f5f60c0878903121561516a57615169614efe565b5b5f61517789828a01614f4c565b965050602061518889828a01614f4c565b955050604061519989828a01615026565b94505060606151aa89828a01615026565b93505060806151bb89828a0161513c565b92505060a06151cc89828a01614f7f565b9150509295509295509295565b5f602082840312156151ee576151ed614efe565b5b5f6151fb84828501614f4c565b91505092915050565b61520d81614f25565b82525050565b61521c81615004565b82525050565b7f4e487b71000000000000000000000000000000000000000000000000000000005f52602160045260245ffd5b600581106152605761525f615222565b5b50565b5f8190506152708261524f565b919050565b5f61527f82615263565b9050919050565b61528f81615275565b82525050565b61529e81614f60565b82525050565b60c082015f8201516152b85f850182615204565b5060208201516152cb6020850182615204565b5060408201516152de6040850182615213565b5060608201516152f16060850182615213565b5060808201516153046080850182615286565b5060a082015161531760a0850182615295565b50505050565b5f60c0820190506153305f8301846152a4565b92915050565b60088110615342575f5ffd5b50565b5f8135905061535381615336565b92915050565b5f5f6040838503121561536f5761536e614efe565b5b5f61537c85828601615345565b925050602061538d85828601614f4c565b9150509250929050565b604082015f8201516153ab5f850182615295565b5060208201516153be6020850182615213565b50505050565b604082015f8201516153d85f850182615213565b5060208201516153eb6020850182615295565b50505050565b606082015f8201516154055f850182615213565b5060208201516154186020850182615295565b50604082015161542b6040850182615213565b50505050565b606082015f8201516154455f850182615213565b5060208201516154586020850182615213565b50604082015161546b6040850182615295565b50505050565b604082015f8201516154855f850182615213565b5060208201516154986020850182615213565b50505050565b61018082015f8201516154b35f850182615397565b5060208201516154c660408501826153c4565b5060408201516154d960808501826153f1565b5060608201516154ec60e0850182615431565b506080820151615500610140850182615471565b50505050565b5f6101808201905061551a5f83018461549e565b92915050565b5f6020828403121561553557615534614efe565b5b5f61554284828501614f7f565b91505092915050565b604082015f82015161555f5f850182615295565b5060208201516155726020850182615213565b50505050565b604082015f82015161558c5f850182615213565b50602082015161559f6020850182615295565b50505050565b606082015f8201516155b95f850182615213565b5060208201516155cc6020850182615295565b5060408201516155df6040850182615213565b50505050565b606082015f8201516155f95f850182615213565b50602082015161560c6020850182615213565b50604082015161561f6040850182615295565b50505050565b604082015f8201516156395f850182615213565b50602082015161564c6020850182615213565b50505050565b5f610180820190506156665f83018861554b565b6156736040830187615578565b61568060808301866155a5565b61568d60e08301856155e5565b61569b610140830184615625565b9695505050505050565b5f81519050919050565b5f82825260208201905092915050565b5f6156c9826156a5565b6156d381856156af565b93506156e3818560208601614e7f565b6156ec81614e8d565b840191505092915050565b6004811061570857615707615222565b5b50565b5f819050615718826156f7565b919050565b5f6157278261570b565b9050919050565b6157378161571d565b82525050565b6008811061574e5761574d615222565b5b50565b5f81905061575e8261573d565b919050565b5f61576d82615751565b9050919050565b61577d81615763565b82525050565b5f610100820190508181035f83015261579c818b6156bf565b905081810360208301526157b0818a6156bf565b90506157bf604083018961508d565b6157cc606083018861508d565b6157d96080830187615065565b6157e660a0830186615105565b6157f360c083018561572e565b61580060e0830184615774565b9998505050505050505050565b5f5f6040838503121561582357615822614efe565b5b5f61583085828601615026565b925050602061584185828601614f4c565b9150509250929050565b61585481614fd1565b811461585e575f5ffd5b50565b5f8135905061586f8161584b565b92915050565b5f5f5f6060848603121561588c5761588b614efe565b5b5f61589986828701614f4c565b93505060206158aa86828701614f7f565b92505060406158bb86828701615861565b9150509250925092565b5f5ffd5b7f4e487b71000000000000000000000000000000000000000000000000000000005f52604160045260245ffd5b6158ff82614e8d565b810181811067ffffffffffffffff8211171561591e5761591d6158c9565b5b80604052505050565b5f615930614ef5565b905061593c82826158f6565b919050565b5f67ffffffffffffffff82111561595b5761595a6158c9565b5b602082029050602081019050919050565b5f5ffd5b5f61598261597d84615941565b615927565b905080838252602082019050602084028301858111156159a5576159a461596c565b5b835b818110156159ce57806159ba8882614f4c565b8452602084019350506020810190506159a7565b5050509392505050565b5f82601f8301126159ec576159eb6158c5565b5b81356159fc848260208601615970565b91505092915050565b5f5f60408385031215615a1b57615a1a614efe565b5b5f83013567ffffffffffffffff811115615a3857615a37614f02565b5b615a44858286016159d8565b9250506020615a5585828601614f7f565b9150509250929050565b5f5f5f60608486031215615a7657615a75614efe565b5b5f615a8386828701615026565b9350506020615a9486828701615026565b9250506040615aa586828701614f4c565b9150509250925092565b5f5f5f60608486031215615ac657615ac5614efe565b5b5f615ad386828701614f4c565b9350506020615ae486828701615026565b9250506040615af586828701615026565b9150509250925092565b5f5f60408385031215615b1557615b14614efe565b5b5f615b2285828601614f4c565b9250506020615b3385828601615345565b9150509250929050565b5f5f60408385031215615b5357615b52614efe565b5b5f615b6085828601614f4c565b9250506020615b7185828601614f4c565b9150509250929050565b615b8481615275565b82525050565b60038110615b9b57615b9a615222565b5b50565b5f819050615bab82615b8a565b919050565b5f615bba82615b9e565b9050919050565b615bca81615bb0565b82525050565b5f608082019050615be35f830187615065565b615bf06020830186615065565b615bfd6040830185615b7b565b615c0a6060830184615bc1565b95945050505050565b5f81519050919050565b5f82825260208201905092915050565b5f819050602082019050919050565b5f82825260208201905092915050565b5f615c56826156a5565b615c608185615c3c565b9350615c70818560208601614e7f565b615c7981614e8d565b840191505092915050565b615c8d8161571d565b82525050565b615c9c81615763565b82525050565b5f61010083015f8301518482035f860152615cbd8282615c4c565b91505060208301518482036020860152615cd78282615c4c565b9150506040830151615cec6040860182615295565b506060830151615cff6060860182615295565b506080830151615d126080860182615204565b5060a0830151615d2560a0860182615213565b5060c0830151615d3860c0860182615c84565b5060e0830151615d4b60e0860182615c93565b508091505092915050565b5f615d618383615ca2565b905092915050565b5f602082019050919050565b5f615d7f82615c13565b615d898185615c1d565b935083602082028501615d9b85615c2d565b805f5b85811015615dd65784840389528151615db78582615d56565b9450615dc283615d69565b925060208a01995050600181019050615d9e565b50829750879550505050505092915050565b5f6020820190508181035f830152615e008184615d75565b905092915050565b5f60c082019050615e1b5f830189615065565b615e286020830188615065565b615e356040830187615105565b615e426060830186615105565b615e4f6080830185615b7b565b615e5c60a083018461508d565b979650505050505050565b5f61010083015f8301518482035f860152615e828282615c4c565b91505060208301518482036020860152615e9c8282615c4c565b9150506040830151615eb16040860182615295565b506060830151615ec46060860182615295565b506080830151615ed76080860182615204565b5060a0830151615eea60a0860182615213565b5060c0830151615efd60c0860182615c84565b5060e0830151615f1060e0860182615c93565b508091505092915050565b5f6020820190508181035f830152615f338184615e67565b905092915050565b7f4e487b71000000000000000000000000000000000000000000000000000000005f52602260045260245ffd5b5f6002820490506001821680615f7f57607f821691505b602082108103615f9257615f91615f3b565b5b50919050565b7f617373657420737065636966696564206973206e6f74206f776e6564206279205f8201527f706c617965720000000000000000000000000000000000000000000000000000602082015250565b5f615ff2602683614e6f565b9150615ffd82615f98565b604082019050919050565b5f6020820190508181035f83015261601f81615fe6565b9050919050565b7f6173736574206f6e206d6f7274676167650000000000000000000000000000005f82015250565b5f61605a601183614e6f565b915061606582616026565b602082019050919050565b5f6020820190508181035f8301526160878161604e565b9050919050565b7f62696464696e672070726f7065727479206973206f6e206d6f727467616765205f8201527f2c2068656e63652070726f706f73616c2063616e6e6f74206265206d61646500602082015250565b5f6160e8603f83614e6f565b91506160f38261608e565b604082019050919050565b5f6020820190508181035f830152616115816160dc565b9050919050565b7f4e487b71000000000000000000000000000000000000000000000000000000005f52601160045260245ffd5b5f61615382614f60565b915061615e83614f60565b92508282019050808211156161765761617561611c565b5b92915050565b7f496e76616c69642070726f70657274792c20636f756c64206e6f7420626520625f8201527f6f75676874000000000000000000000000000000000000000000000000000000602082015250565b5f6161d6602583614e6f565b91506161e18261617c565b604082019050919050565b5f6020820190508181035f830152616203816161ca565b9050919050565b7f596f7520616c7265616479206f776e207468652070726f7065727479000000005f82015250565b5f61623e601c83614e6f565b91506162498261620a565b602082019050919050565b5f6020820190508181035f83015261626b81616232565b9050919050565b7f696e73756666696369656e742062616c616e63650000000000000000000000005f82015250565b5f6162a6601483614e6f565b91506162b182616272565b602082019050919050565b5f6020820190508181035f8301526162d38161629a565b9050919050565b7f616c7265616479206f776e6564206279206120706c61796572000000000000005f82015250565b5f61630e601983614e6f565b9150616319826162da565b602082019050919050565b5f6020820190508181035f83015261633b81616302565b9050919050565b5f61634c82615004565b915061635783615004565b9250828201905060ff8111156163705761636f61611c565b5b92915050565b7f50726f706f73616c20616c7265616479206465636964656400000000000000005f82015250565b5f6163aa601883614e6f565b91506163b582616376565b602082019050919050565b5f6020820190508181035f8301526163d78161639e565b9050919050565b7f50726f706572747920697320616c7265616479204d6f727467616765640000005f82015250565b5f616412601d83614e6f565b915061641d826163de565b602082019050919050565b5f6020820190508181035f83015261643f81616406565b9050919050565b7f596f7520617265206e6f7420746865206f776e6572206f6620746869732070725f8201527f6f70657274790000000000000000000000000000000000000000000000000000602082015250565b5f6164a0602683614e6f565b91506164ab82616446565b604082019050919050565b5f6020820190508181035f8301526164cd81616494565b9050919050565b7f4e487b71000000000000000000000000000000000000000000000000000000005f52601260045260245ffd5b5f61650b82614f60565b915061651683614f60565b925082616526576165256164d4565b5b828204905092915050565b5f819050919050565b5f61655461654f61654a84615004565b616531565b614f60565b9050919050565b6165648161653a565b82525050565b5f60608201905061657d5f83018661655b565b61658a602083018561508d565b6165976040830184615065565b949350505050565b7f4e487b71000000000000000000000000000000000000000000000000000000005f52603260045260245ffd5b5f6165d682615004565b915060ff82036165e9576165e861611c565b5b600182019050919050565b7f63616e6e6f7420646f776e6772616465207369746500000000000000000000005f82015250565b5f616628601583614e6f565b9150616633826165f4565b602082019050919050565b5f6020820190508181035f8301526166558161661c565b9050919050565b7f63616e6e6f7420646f776e6772616465000000000000000000000000000000005f82015250565b5f616690601083614e6f565b915061669b8261665c565b602082019050919050565b5f6020820190508181035f8301526166bd81616684565b9050919050565b7f43616e6e6f7420646f776e67726164652061206d6f727467616765642070726f5f8201527f7065727479000000000000000000000000000000000000000000000000000000602082015250565b5f61671e602583614e6f565b9150616729826166c4565b604082019050919050565b5f6020820190508181035f83015261674b81616712565b9050919050565b5f61675c82615004565b915061676783615004565b9250828203905060ff8111156167805761677f61611c565b5b92915050565b5f8160011c9050919050565b5f5f8291508390505b60018511156167db578086048111156167b7576167b661611c565b5b60018516156167c65780820291505b80810290506167d485616786565b945061679b565b94509492505050565b5f826167f357600190506168ae565b81616800575f90506168ae565b816001811461681657600281146168205761684f565b60019150506168ae565b60ff8411156168325761683161611c565b5b8360020a9150848211156168495761684861611c565b5b506168ae565b5060208310610133831016604e8410600b84101617156168845782820a90508381111561687f5761687e61611c565b5b6168ae565b6168918484846001616792565b925090508184048111156168a8576168a761611c565b5b81810290505b9392505050565b5f6168bf82614f60565b91506168ca83615004565b92506168f77fffffffffffffffffffffffffffffffffffffffffffffffffffffffffffffffff84846167e4565b905092915050565b5f61690982614f60565b915061691483614f60565b925082820261692281614f60565b915082820484148315176169395761693861611c565b5b5092915050565b5f6020820190506169535f83018461655b565b92915050565b7f50726f7065727479206973204d6f72746761676564206e6f2072656e740000005f82015250565b5f61698d601d83614e6f565b915061699882616959565b602082019050919050565b5f6020820190508181035f8301526169ba81616981565b9050919050565b7f50726f706572747920646f6573206e6f74206861766520616e206f776e6572005f82015250565b5f6169f5601f83614e6f565b9150616a00826169c1565b602082019050919050565b5f6020820190508181035f830152616a22816169e9565b9050919050565b7f506c61796572204f776e732050726f7065727479206e6f206e65656420666f725f8201527f2072656e74000000000000000000000000000000000000000000000000000000602082015250565b5f616a83602583614e6f565b9150616a8e82616a29565b604082019050919050565b5f6020820190508181035f830152616ab081616a77565b9050919050565b7f50726f7065727479206973204d6f727467616765642063616e6e6f74207570675f8201527f7261646500000000000000000000000000000000000000000000000000000000602082015250565b5f616b11602483614e6f565b9150616b1c82616ab7565b604082019050919050565b5f6020820190508181035f830152616b3e81616b05565b9050919050565b7f4f6e6c792070726f706572746965732063616e206265207570677261646564005f82015250565b5f616b79601f83614e6f565b9150616b8482616b45565b602082019050919050565b5f6020820190508181035f830152616ba681616b6d565b9050919050565b50565b5f616bbb5f83614e6f565b9150616bc682616bad565b5f82019050919050565b5f6020820190508181035f830152616be781616bb0565b9050919050565b7f6d757374206f776e206174206c656173742074776f2f746872656520736974655f8201527f20776974682073616d6520636f6c6f7220000000000000000000000000000000602082015250565b5f616c48603183614e6f565b9150616c5382616bee565b604082019050919050565b5f6020820190508181035f830152616c7581616c3c565b9050919050565b7f726561636820746865207065616b207570677261646520666f722074686973205f8201527f70726f7065727479200000000000000000000000000000000000000000000000602082015250565b5f616cd6602983614e6f565b9150616ce182616c7c565b604082019050919050565b5f6020820190508181035f830152616d0381616cca565b9050919050565b7f7570677261646520657863656564207065616b200000000000000000000000005f82015250565b5f616d3e601483614e6f565b9150616d4982616d0a565b602082019050919050565b5f6020820190508181035f830152616d6b81616d32565b9050919050565b7f496e73756666696369656e742066756e647320746f20757067726164652070725f8201527f6f70657274790000000000000000000000000000000000000000000000000000602082015250565b5f616dcc602683614e6f565b9150616dd782616d72565b604082019050919050565b5f6020820190508181035f830152616df981616dc0565b9050919050565b7f50726f7065727479206973206e6f74204d6f72746761676564000000000000005f82015250565b5f616e34601983614e6f565b9150616e3f82616e00565b602082019050919050565b5f6020820190508181035f830152616e6181616e28565b9050919050565b5f606082019050616e7b5f830186615065565b616e88602083018561508d565b616e95604083018461508d565b949350505050565b7f70726f706f73616c206e6f7420746f20746869732075736572000000000000005f82015250565b5f616ed1601983614e6f565b9150616edc82616e9d565b602082019050919050565b5f6020820190508181035f830152616efe81616ec5565b9050919050565b7f70726f706f73657220646f6573206e6f7420686f6c6420737563682076616c755f8201527f652061742068616e640000000000000000000000000000000000000000000000602082015250565b5f616f5f602983614e6f565b9150616f6a82616f05565b604082019050919050565b5f6020820190508181035f830152616f8c81616f53565b905091905056fea26469706673582212204ca0b43dd5ee70b784984cafd9635afc8e750124502aab075129348a06266e4564736f6c634300081c0033","linkReferences":{}},"methodIdentifiers":{"allowance(address,address)":"dd62ed3e","approve(address,uint256)":"095ea7b3","bal(address)":"5580f72a","balanceOf(address)":"70a08231","buyProperty(uint8,address)":"946b6306","decimals()":"313ce567","downgradeProperty(uint8,uint8,address)":"c739e6ee","gameProperties(uint8)":"8268d1a7","getNumberOfUserOwnedPropertyOnAColor(address,uint8)":"ce48d30d","getPropertiesOwnedByAPlayer(address)":"e7b5852f","getProperty(uint8)":"ffa8a178","getPropertyOwner(uint8)":"e9488e66","getProposalSwappedType(uint8)":"76187d1f","handleRent(address,uint8,uint8)":"cc94a51b","inGameProposals(uint256)":"e114cf25","makeDecisionOnProposal(address,uint256,bool)":"a28737b5","makeProposal(address,address,uint8,uint8,uint8,uint256)":"336d755f","mint(address,uint256)":"40c10f19","mints(address[],uint256)":"ad3898ed","mortgageProperty(uint8,address)":"a306f889","name()":"06fdde03","noOfColorGroupOwnedByUser(uint8,address)":"5fb212dd","propertyOwner(uint8)":"11210fe7","propertySwap(address)":"edaf4c79","propertyToProposal(uint8)":"6228d037","releaseMortgage(uint8,address)":"e6fb39ba","returnProposal(address)":"a6cd56e5","swappedType(uint256)":"7f4a55d4","symbol()":"95d89b41","totalSupply()":"18160ddd","transfer(address,uint256)":"a9059cbb","transferFrom(address,address,uint256)":"23b872dd","upgradeProperty(uint8,uint8,address)":"cd2385b9","viewDeals(address)":"3f49b452"},"id":51}