{"abi":[{"type":"constructor","inputs":[{"name":"numberOfPlayers","type":"uint8","internalType":"uint8"},{"name":"_nftContract","type":"address","internalType":"address"},{"name":"gameToken","type":"address","internalType":"address"}],"stateMutability":"nonpayable"},{"type":"function","name":"bal","inputs":[{"name":"addr","type":"address","internalType":"address"}],"outputs":[{"name":"","type":"uint256","internalType":"uint256"}],"stateMutability":"nonpayable"},{"type":"function","name":"buyProperty","inputs":[{"name":"propertyId","type":"uint8","internalType":"uint8"},{"name":"buyer","type":"address","internalType":"address"}],"outputs":[],"stateMutability":"nonpayable"},{"type":"function","name":"downgradeProperty","inputs":[{"name":"propertyId","type":"uint8","internalType":"uint8"},{"name":"noOfDowngrade","type":"uint8","internalType":"uint8"},{"name":"player","type":"address","internalType":"address"}],"outputs":[],"stateMutability":"nonpayable"},{"type":"function","name":"getNumberOfUserOwnedPropertyOnAColor","inputs":[{"name":"user","type":"address","internalType":"address"},{"name":"color","type":"uint8","internalType":"enum MonopolyLibrary.PropertyColors"}],"outputs":[{"name":"","type":"uint8","internalType":"uint8"}],"stateMutability":"view"},{"type":"function","name":"getPropertiesOwnedByAPlayer","inputs":[{"name":"_playerAddress","type":"address","internalType":"address"}],"outputs":[{"name":"","type":"tuple[]","internalType":"struct MonopolyLibrary.PropertyG[]","components":[{"name":"name","type":"bytes","internalType":"bytes"},{"name":"uri","type":"bytes","internalType":"bytes"},{"name":"buyAmount","type":"uint256","internalType":"uint256"},{"name":"rentAmount","type":"uint256","internalType":"uint256"},{"name":"owner","type":"address","internalType":"address"},{"name":"noOfUpgrades","type":"uint8","internalType":"uint8"},{"name":"propertyType","type":"uint8","internalType":"enum MonopolyLibrary.PropertyType"},{"name":"propertyColor","type":"uint8","internalType":"enum MonopolyLibrary.PropertyColors"}]}],"stateMutability":"view"},{"type":"function","name":"getProperty","inputs":[{"name":"propertyId","type":"uint8","internalType":"uint8"}],"outputs":[{"name":"","type":"tuple","internalType":"struct MonopolyLibrary.PropertyG","components":[{"name":"name","type":"bytes","internalType":"bytes"},{"name":"uri","type":"bytes","internalType":"bytes"},{"name":"buyAmount","type":"uint256","internalType":"uint256"},{"name":"rentAmount","type":"uint256","internalType":"uint256"},{"name":"owner","type":"address","internalType":"address"},{"name":"noOfUpgrades","type":"uint8","internalType":"uint8"},{"name":"propertyType","type":"uint8","internalType":"enum MonopolyLibrary.PropertyType"},{"name":"propertyColor","type":"uint8","internalType":"enum MonopolyLibrary.PropertyColors"}]}],"stateMutability":"view"},{"type":"function","name":"getPropertyOwner","inputs":[{"name":"propertyId","type":"uint8","internalType":"uint8"}],"outputs":[{"name":"","type":"address","internalType":"address"}],"stateMutability":"view"},{"type":"function","name":"getProposalSwappedType","inputs":[{"name":"proposalId","type":"uint8","internalType":"uint8"}],"outputs":[{"name":"","type":"tuple","internalType":"struct MonopolyLibrary.SwappedType","components":[{"name":"cashForProperty","type":"tuple","internalType":"struct MonopolyLibrary.CashForProperty","components":[{"name":"proposedAmount","type":"uint256","internalType":"uint256"},{"name":"biddingPropertyId","type":"uint8","internalType":"uint8"}]},{"name":"propertyForCash","type":"tuple","internalType":"struct MonopolyLibrary.PropertyForCash","components":[{"name":"propertyId","type":"uint8","internalType":"uint8"},{"name":"biddingAmount","type":"uint256","internalType":"uint256"}]},{"name":"propertyAndCashForProperty","type":"tuple","internalType":"struct MonopolyLibrary.PropertyAndCashForProperty","components":[{"name":"proposedPropertyId","type":"uint8","internalType":"uint8"},{"name":"proposedAmount","type":"uint256","internalType":"uint256"},{"name":"biddingPropertyId","type":"uint8","internalType":"uint8"}]},{"name":"propertyForCashAndProperty","type":"tuple","internalType":"struct MonopolyLibrary.PropertyForCashAndProperty","components":[{"name":"proposedPropertyId","type":"uint8","internalType":"uint8"},{"name":"biddingPropertyId","type":"uint8","internalType":"uint8"},{"name":"biddingAmount","type":"uint256","internalType":"uint256"}]},{"name":"propertyForProperty","type":"tuple","internalType":"struct MonopolyLibrary.PropertyForProperty","components":[{"name":"proposedPropertyId","type":"uint8","internalType":"uint8"},{"name":"biddingPropertyId","type":"uint8","internalType":"uint8"}]}]}],"stateMutability":"view"},{"type":"function","name":"handleRent","inputs":[{"name":"player","type":"address","internalType":"address"},{"name":"propertyId","type":"uint8","internalType":"uint8"},{"name":"diceRolled","type":"uint8","internalType":"uint8"}],"outputs":[],"stateMutability":"nonpayable"},{"type":"function","name":"makeDecisionOnProposal","inputs":[{"name":"_user","type":"address","internalType":"address"},{"name":"proposalId","type":"uint256","internalType":"uint256"},{"name":"isAccepted","type":"bool","internalType":"bool"}],"outputs":[],"stateMutability":"nonpayable"},{"type":"function","name":"makeProposal","inputs":[{"name":"proposer","type":"address","internalType":"address"},{"name":"otherPlayer","type":"address","internalType":"address"},{"name":"proposedPropertyId","type":"uint8","internalType":"uint8"},{"name":"biddingPropertyId","type":"uint8","internalType":"uint8"},{"name":"swapType","type":"uint8","internalType":"enum MonopolyLibrary.SwapType"},{"name":"amountInvolved","type":"uint256","internalType":"uint256"}],"outputs":[],"stateMutability":"nonpayable"},{"type":"function","name":"mint","inputs":[{"name":"to","type":"address","internalType":"address"},{"name":"amount","type":"uint256","internalType":"uint256"}],"outputs":[],"stateMutability":"nonpayable"},{"type":"function","name":"mints","inputs":[{"name":"to","type":"address[]","internalType":"address[]"},{"name":"amount","type":"uint256","internalType":"uint256"}],"outputs":[],"stateMutability":"nonpayable"},{"type":"function","name":"mortgageProperty","inputs":[{"name":"propertyId","type":"uint8","internalType":"uint8"},{"name":"player","type":"address","internalType":"address"}],"outputs":[],"stateMutability":"nonpayable"},{"type":"function","name":"releaseMortgage","inputs":[{"name":"propertyId","type":"uint8","internalType":"uint8"},{"name":"player","type":"address","internalType":"address"}],"outputs":[],"stateMutability":"nonpayable"},{"type":"function","name":"returnProposal","inputs":[{"name":"user","type":"address","internalType":"address"}],"outputs":[{"name":"","type":"tuple","internalType":"struct MonopolyLibrary.PropertySwap","components":[{"name":"bidder","type":"address","internalType":"address"},{"name":"clientAddress","type":"address","internalType":"address"},{"name":"biddersProperty","type":"uint8","internalType":"uint8"},{"name":"yourProperty","type":"uint8","internalType":"uint8"},{"name":"swapType","type":"uint8","internalType":"enum MonopolyLibrary.SwapType"},{"name":"biddingAmount","type":"uint256","internalType":"uint256"}]}],"stateMutability":"view"},{"type":"function","name":"upgradeProperty","inputs":[{"name":"propertyId","type":"uint8","internalType":"uint8"},{"name":"_noOfUpgrade","type":"uint8","internalType":"uint8"},{"name":"player","type":"address","internalType":"address"}],"outputs":[],"stateMutability":"nonpayable"},{"type":"event","name":"PropertyDownGraded","inputs":[{"name":"propertyId","type":"uint256","indexed":false,"internalType":"uint256"}],"anonymous":false},{"type":"event","name":"PropertyMortgaged","inputs":[{"name":"propertyId","type":"uint256","indexed":false,"internalType":"uint256"},{"name":"mortgageAmount","type":"uint256","indexed":false,"internalType":"uint256"},{"name":"owner","type":"address","indexed":false,"internalType":"address"}],"anonymous":false},{"type":"event","name":"PropertyUpGraded","inputs":[{"name":"propertyId","type":"uint256","indexed":false,"internalType":"uint256"}],"anonymous":false},{"type":"event","name":"RentPaid","inputs":[{"name":"tenant","type":"address","indexed":false,"internalType":"address"},{"name":"landlord","type":"address","indexed":false,"internalType":"address"},{"name":"rentPrice","type":"uint256","indexed":false,"internalType":"uint256"},{"name":"property","type":"bytes","indexed":false,"internalType":"bytes"}],"anonymous":false},{"type":"error","name":"ReentrancyGuardReentrantCall","inputs":[]}],"bytecode":{"object":"0x608060405234801561000f575f5ffd5b5060405161416e38038061416e83398101604081905261002e916104d7565b60015f81905561004090848484610048565b50505061092b565b5f826001600160a01b03163b116100a55760405162461bcd60e51b815260206004820152601660248201527f6e6f74206120636f6e7472616374206164647265737300000000000000000000604482015260640160405180910390fd5b600e840180546001600160a01b038085166001600160a01b031992831617909255600f8601805492841660ff8716600160a01b029092166001600160a81b0319909316929092171790556100f884610191565b5f808052600480860160205260408083208054600360ff19918216811790925560018552828520805482168317905560028086528386208054831684179055828652838620805483168417905593855282852080548216831790556005855282852080548216831790556006855282852080548216909217909155600784529220805490921617905561018b818461045b565b50505050565b600e81015460408051630f54500b60e21b815290515f926001600160a01b031691633d51402c91600480830192869291908290030181865afa1580156101d9573d5f5f3e3d5ffd5b505050506040513d5f823e601f3d908101601f191682016040526102009190810190610611565b8051600c8401805460ff191660ff90921691909117905590505f5b81518160ff16101561045657604051806101000160405280838360ff168151811061024857610248610775565b60200260200101515f01518152602001838360ff168151811061026d5761026d610775565b6020026020010151604001518152602001838360ff168151811061029357610293610775565b6020026020010151606001518152602001838360ff16815181106102b9576102b9610775565b6020026020010151602001518152602001306001600160a01b031681526020015f60ff168152602001838360ff16815181106102f7576102f7610775565b602002602001015160800151600381111561031457610314610789565b8152602001838360ff168151811061032e5761032e610775565b602002602001015160a00151600781111561034b5761034b610789565b9052600584015f61035d8460016107b1565b60ff16815260208101919091526040015f208151819061037d9082610853565b50602082015160018201906103929082610853565b50604082015160028201556060820151600380830191909155608083015160048301805460a086015160ff16600160a01b026001600160a81b03199091166001600160a01b03909316929092179190911780825560c08501519260ff60a81b1990911690600160a81b90849081111561040d5761040d610789565b021790555060e082015160048201805460ff60b01b1916600160b01b83600781111561043b5761043b610789565b0217905550905050808061044e9061090d565b91505061021b565b505050565b604051631efdd7db60e21b815260ff821660048201523060248201526001600160a01b03831690637bf75f6c906044015f604051808303815f87803b1580156104a2575f5ffd5b505af11580156104b4573d5f5f3e3d5ffd5b505050505050565b80516001600160a01b03811681146104d2575f5ffd5b919050565b5f5f5f606084860312156104e9575f5ffd5b835160ff811681146104f9575f5ffd5b9250610507602085016104bc565b9150610515604085016104bc565b90509250925092565b634e487b7160e01b5f52604160045260245ffd5b60405160c081016001600160401b03811182821017156105545761055461051e565b60405290565b604051601f8201601f191681016001600160401b03811182821017156105825761058261051e565b604052919050565b5f82601f830112610599575f5ffd5b81516001600160401b038111156105b2576105b261051e565b6105c5601f8201601f191660200161055a565b8181528460208386010111156105d9575f5ffd5b8160208501602083015e5f918101602001919091529392505050565b8051600481106104d2575f5ffd5b8051600881106104d2575f5ffd5b5f60208284031215610621575f5ffd5b81516001600160401b03811115610636575f5ffd5b8201601f81018413610646575f5ffd5b80516001600160401b0381111561065f5761065f61051e565b8060051b61066f6020820161055a565b9182526020818401810192908101908784111561068a575f5ffd5b6020850192505b8383101561076a5782516001600160401b038111156106ae575f5ffd5b850160c0818a03601f190112156106c3575f5ffd5b6106cb610532565b60208201516001600160401b038111156106e3575f5ffd5b6106f28b60208386010161058a565b8252506040820151602082015260608201516001600160401b03811115610717575f5ffd5b6107268b60208386010161058a565b6040830152506080820151606082015261074260a083016105f5565b608082015261075360c08301610603565b60a082015283525060209283019290910190610691565b979650505050505050565b634e487b7160e01b5f52603260045260245ffd5b634e487b7160e01b5f52602160045260245ffd5b634e487b7160e01b5f52601160045260245ffd5b60ff81811683821601908111156107ca576107ca61079d565b92915050565b600181811c908216806107e457607f821691505b60208210810361080257634e487b7160e01b5f52602260045260245ffd5b50919050565b601f82111561045657805f5260205f20601f840160051c8101602085101561082d5750805b601f840160051c820191505b8181101561084c575f8155600101610839565b5050505050565b81516001600160401b0381111561086c5761086c61051e565b6108808161087a84546107d0565b84610808565b6020601f8211600181146108b2575f831561089b5750848201515b5f19600385901b1c1916600184901b17845561084c565b5f84815260208120601f198516915b828110156108e157878501518255602094850194600190920191016108c1565b50848210156108fe57868401515f19600387901b60f8161c191681555b50505050600190811b01905550565b5f60ff821660ff81036109225761092261079d565b60010192915050565b613836806109385f395ff3fe608060405234801561000f575f5ffd5b5060043610610106575f3560e01c8063ad3898ed1161009e578063ce48d30d1161006e578063ce48d30d1461021c578063e6fb39ba14610241578063e7b5852f14610254578063e9488e6614610274578063ffa8a178146102ba575f5ffd5b8063ad3898ed146101d0578063c739e6ee146101e3578063cc94a51b146101f6578063cd2385b914610209575f5ffd5b8063946b6306116100d9578063946b630614610177578063a28737b51461018a578063a306f8891461019d578063a6cd56e5146101b0575f5ffd5b8063336d755f1461010a57806340c10f191461011f5780635580f72a1461013157806376187d1f14610157575b5f5ffd5b61011d610118366004612fbd565b6102da565b005b61011d61012d36600461302d565b5050565b61014461013f366004613055565b6102f2565b6040519081526020015b60405180910390f35b61016a61016536600461306e565b610304565b60405161014e9190613087565b61011d610185366004613139565b610317565b61011d61019836600461316a565b610334565b61011d6101ab366004613139565b610357565b6101c36101be366004613055565b61036b565b60405161014e91906131bf565b61011d6101de36600461323e565b6103a7565b61011d6101f1366004613311565b6103b3565b61011d610204366004613351565b6103c8565b61011d610217366004613311565b6103dd565b61022f61022a366004613388565b6103f2565b60405160ff909116815260200161014e565b61011d61024f366004613139565b610406565b610267610262366004613055565b61041a565b60405161014e91906134ac565b6102a261028236600461306e565b60ff165f908152600660205260409020600401546001600160a01b031690565b6040516001600160a01b03909116815260200161014e565b6102cd6102c836600461306e565b610427565b60405161014e919061350f565b6102ea6001878787878787610615565b505050505050565b5f6102fe60018361097b565b92915050565b61030c612eb3565b6102fe6001836109ef565b61031f610aca565b61032b60018383610af2565b61012d60015f55565b61033c610aca565b6103496001848484610be4565b61035260015f55565b505050565b61035f610aca565b61032b60018383610c9b565b6040805160c0810182525f80825260208201819052918101829052606081018290526080810182905260a08101919091526102fe600183610de3565b61012d60018383610eb8565b6103bb610aca565b6103496001848484610f20565b6103d0610aca565b6103496001848484610fde565b6103e5610aca565b610349600184848461115a565b5f6103ff6001848461127d565b9392505050565b61040e610aca565b61032b600183836112d8565b60606102fe60018361135c565b61042f612f37565b60ff82165f90815260066020526040908190208151610100810190925280548290829061045b90613521565b80601f016020809104026020016040519081016040528092919081815260200182805461048790613521565b80156104d25780601f106104a9576101008083540402835291602001916104d2565b820191905f5260205f20905b8154815290600101906020018083116104b557829003601f168201915b505050505081526020016001820180546104eb90613521565b80601f016020809104026020016040519081016040528092919081815260200182805461051790613521565b80156105625780601f1061053957610100808354040283529160200191610562565b820191905f5260205f20905b81548152906001019060200180831161054557829003601f168201915b505050918352505060028201546020820152600380830154604083015260048301546001600160a01b038116606084015260ff600160a01b82048116608085015260a090930192600160a81b90910416908111156105c2576105c26131ab565b60038111156105d3576105d36131ab565b81526020016004820160169054906101000a900460ff1660078111156105fb576105fb6131ab565b600781111561060c5761060c6131ab565b90525092915050565b60ff84165f908152602088905260409020546001600160a01b0390811690871681146106975760405162461bcd60e51b815260206004820152602660248201527f617373657420737065636966696564206973206e6f74206f776e656420627920604482015265383630bcb2b960d11b60648201526084015b60405180910390fd5b60ff8086165f90815260018a01602052604090205416156106ee5760405162461bcd60e51b81526020600482015260116024820152706173736574206f6e206d6f72746761676560781b604482015260640161068e565b60ff84161561075a5760ff8085165f90815260018a016020526040902054161561075a5760405162461bcd60e51b815260206004820152601f60248201527f62696464696e672070726f7065727479206973206f6e206d6f72746761676500604482015260640161068e565b600188600d015f82825461076e919061356d565b9091555050600d8801545f908152600789016020526040902060018101805485919060ff60a01b1916600160a01b8360048111156107ae576107ae6131ab565b02179055506001810180546001600160a01b03808a166001600160a01b0319928316179092558254918a1691161781555f8460048111156107f1576107f16131ab565b0361082b57600d8901545f9081526009808b01602052604090912001805460ff8781166101000261ffff1990921690891617179055610950565b600184600481111561083f5761083f6131ab565b0361088057600d8901545f90815260098a016020526040902060078101805460ff8881166101000261ffff19909216908a1617179055600801839055610950565b6002846004811115610894576108946131ab565b036108df57600d8901545f90815260098a016020526040902060048101805460ff89811660ff1992831617909255600583018690556006909201805491881691909216179055610950565b60038460048111156108f3576108f36131ab565b0361092857600d8901545f90815260098a016020526040902060028101805460ff191660ff8916179055600301839055610950565b600d8901545f90815260098a0160205260409020838155600101805460ff191660ff87161790555b505050600d8601545f908152600a90960160205250506040909320805460ff19166001179055505050565b600f820154604051633de222bb60e21b81526001600160a01b0383811660048301523060248301525f92169063f7888aec90604401602060405180830381865afa1580156109cb573d5f5f3e3d5ffd5b505050506040513d601f19601f820116820180604052508101906103ff9190613580565b6109f7612eb3565b5060ff9081165f90815260099283016020908152604091829020825160e081018452815460a082019081526001830154861660c083015281528351808501855260028301548616815260038301548185015281840152835160608181018652600484015487168252600584015482860152600684015487168287015282860191909152845180820186526007840154808816825261010090819004881682870152600885015482880152918301528451808601909552919095015480851684520490921691810191909152608082015290565b60025f5403610aec57604051633ee5aeb560e01b815260040160405180910390fd5b60025f55565b600f830154604051633de222bb60e21b81526001600160a01b0380841660048301523060248301525f92610b769287928792879291169063f7888aec90604401602060405180830381865afa158015610b4d573d5f5f3e3d5ffd5b505050506040513d601f19601f82011682018060405250810190610b719190613580565b61162a565b600f850154604051633713ade960e11b81529192506001600160a01b031690636e275bd290610bb19030908690829081908890600401613597565b5f604051808303815f87803b158015610bc8575f5ffd5b505af1158015610bda573d5f5f3e3d5ffd5b5050505050505050565b5f828152600a8501602052604090205460ff16610c435760405162461bcd60e51b815260206004820152601860248201527f50726f706f73616c20616c726561647920646563696465640000000000000000604482015260640161068e565b5f82815260078501602052604090208115610c6857610c6385858561190e565b610c7e565b60018101805460ff60a81b1916600160a91b1790555b50505f908152600a9092016020525060409020805460ff19169055565b600f830154604051633de222bb60e21b81526001600160a01b0380841660048301523060248301525f92610d1f9287928792879291169063f7888aec90604401602060405180830381865afa158015610cf6573d5f5f3e3d5ffd5b505050506040513d601f19601f82011682018060405250810190610d1a9190613580565b611b86565b600f850154604051633c6340f360e21b8152306004820181905260248201526001600160a01b0385811660448301526064820184905292935091169063f18d03cc906084015f604051808303815f87803b158015610d7b575f5ffd5b505af1158015610d8d573d5f5f3e3d5ffd5b50506040805160ff87168152602081018590526001600160a01b0386168183015290517f8552ced5fbb1a781ce2c5187234a08187f534e832528683f5f9f4ebbc8265e0b9350908190036060019150a150505050565b6040805160c0810182525f80825260208201819052918101829052606081018290526080810182905260a08101919091526001600160a01b038083165f908152600685016020908152604091829020825160c08101845281548516815260018201549485169281019290925260ff600160a01b8504811693830193909352600160a81b840483166060830152909290916080840191600160b01b9004166004811115610e9157610e916131ab565b6004811115610ea257610ea26131ab565b8152602001600282015481525050905092915050565b600f8301546040516302116f0f60e11b81526001600160a01b0390911690630422de1e90610eee908590859030906004016135ca565b5f604051808303815f87803b158015610f05575f5ffd5b505af1158015610f17573d5f5f3e3d5ffd5b50505050505050565b5f610f2d85858585611e41565b600f860154604051633c6340f360e21b8152306004820181905260248201526001600160a01b0385811660448301526064820184905292935091169063f18d03cc906084015f604051808303815f87803b158015610f89575f5ffd5b505af1158015610f9b573d5f5f3e3d5ffd5b505060405160ff871681527fd59433e14b54c583da535c728efbd3ef0c76b4d6e21ea9c70dbc2525308c4350925060200190505b60405180910390a15050505050565b600f840154604051633de222bb60e21b81526001600160a01b0380861660048301523060248301525f926110659288928892889288929091169063f7888aec90604401602060405180830381865afa15801561103c573d5f5f3e3d5ffd5b505050506040513d601f19601f820116820180604052508101906110609190613580565b612017565b600f86015460ff85165f908152600588016020526040908190206004908101549151633713ade960e11b81529394506001600160a01b0392831693636e275bd2936110bc9330938b93859390921691899101613597565b5f604051808303815f87803b1580156110d3575f5ffd5b505af11580156110e5573d5f5f3e3d5ffd5b5050505060ff83165f90815260058601602090815260408083206004015481516001600160a01b03808a1682529091169281019290925281018390526080606082018190528101919091527f7d35c0dc37a6e7b7b443448a5a15b141b722f36eeeb839d6ad186343ee84c0f69060a001610fcf565b600f840154604051633de222bb60e21b81526001600160a01b0380841660048301523060248301525f926111e19288928892889288929091169063f7888aec90604401602060405180830381865afa1580156111b8573d5f5f3e3d5ffd5b505050506040513d601f19601f820116820180604052508101906111dc9190613580565b61226d565b600f860154604051633713ade960e11b81529192506001600160a01b031690636e275bd29061121c9030908690829081908890600401613597565b5f604051808303815f87803b158015611233575f5ffd5b505af1158015611245573d5f5f3e3d5ffd5b505060405160ff871681527f376f985bc0db3d156870ab8ee6abcef525170dc382e193467ff13fa50ca6b26892506020019050610fcf565b5f836003015f836007811115611295576112956131ab565b60078111156112a6576112a66131ab565b815260208082019290925260409081015f9081206001600160a01b038716825290925290205460ff1690509392505050565b600f830154604051633de222bb60e21b81526001600160a01b0380841660048301523060248301525f92610b769287928792879291169063f7888aec90604401602060405180830381865afa158015611333573d5f5f3e3d5ffd5b505050506040513d601f19601f820116820180604052508101906113579190613580565b6126ba565b600c8201546060905f9060ff1667ffffffffffffffff8111156113815761138161322a565b6040519080825280602002602001820160405280156113ba57816020015b6113a7612f37565b81526020019060019003908161139f5790505b5090505f60015b600c86015460ff908116908216116116205760ff81165f9081526005870160205260409020600401546001600160a01b0380871691160361160e5760ff81165f908152600587016020526040908190208151610100810190925280548290829061142a90613521565b80601f016020809104026020016040519081016040528092919081815260200182805461145690613521565b80156114a15780601f10611478576101008083540402835291602001916114a1565b820191905f5260205f20905b81548152906001019060200180831161148457829003601f168201915b505050505081526020016001820180546114ba90613521565b80601f01602080910402602001604051908101604052809291908181526020018280546114e690613521565b80156115315780601f1061150857610100808354040283529160200191611531565b820191905f5260205f20905b81548152906001019060200180831161151457829003601f168201915b505050918352505060028201546020820152600380830154604083015260048301546001600160a01b038116606084015260ff600160a01b82048116608085015260a090930192600160a81b9091041690811115611591576115916131ab565b60038111156115a2576115a26131ab565b81526020016004820160169054906101000a900460ff1660078111156115ca576115ca6131ab565b60078111156115db576115db6131ab565b81525050838360ff16815181106115f4576115f461362f565b6020026020010181905250818061160a90613643565b9250505b8061161881613643565b9150506113c1565b5081529392505050565b60ff83165f908152600585016020526040812060036004820154600160a81b900460ff16600381111561165f5761165f6131ab565b036116ba5760405162461bcd60e51b815260206004820152602560248201527f496e76616c69642070726f70657274792c20636f756c64206e6f7420626520626044820152641bdd59da1d60da1b606482015260840161068e565b60048101546001600160a01b038086169116036117195760405162461bcd60e51b815260206004820152601c60248201527f596f7520616c7265616479206f776e207468652070726f706572747900000000604482015260640161068e565b80600201548310156117645760405162461bcd60e51b8152602060048201526014602482015273696e73756666696369656e742062616c616e636560601b604482015260640161068e565b60048101546001600160a01b031630146117c05760405162461bcd60e51b815260206004820152601960248201527f616c7265616479206f776e6564206279206120706c6179657200000000000000604482015260640161068e565b6004810180546001600160a01b0386166001600160a01b03199182168117835560ff8089165f90815260208b9052604081208054909416909217909255915460019260038a01929091600160b01b9004166007811115611822576118226131ab565b6007811115611833576118336131ab565b815260208082019290925260409081015f9081206001600160a01b03891682529092528120805490919061186b90849060ff16613661565b92506101000a81548160ff021916908360ff16021790555060016003811115611896576118966131ab565b6004820154600160a81b900460ff1660038111156118b6576118b66131ab565b03611901576001600160a01b0384165f908152600b8701602052604081208054600192906118e890849060ff16613661565b92506101000a81548160ff021916908360ff1602179055505b6002015495945050505050565b5f8181526007848101602090815260408084206009808901845294829020825160e081018452815460a0820190815260018084015460ff90811660c085015291835285518087018752600285015483168152600385015481890152838801528551606081810188526004860154841682526005860154828a015260068601548416828901528488019190915286518082018852988501548084168a526101009081900484168a8a015260088601548a8901529084019890985285518087019096529290970154808816855295909504909516928201929092526080830152918201546001600160a01b03858116911614611a4a5760405162461bcd60e51b815260206004820152601960248201527f70726f706f73616c206e6f7420746f2074686973207573657200000000000000604482015260640161068e565b5f6001830154600160a01b900460ff166004811115611a6b57611a6b6131ab565b03611a8f578154611a8a908690839087906001600160a01b03166129d2565b611b6c565b60036001830154600160a01b900460ff166004811115611ab157611ab16131ab565b03611ad0578154611a8a908690839087906001600160a01b0316612a4d565b60046001830154600160a01b900460ff166004811115611af257611af26131ab565b03611b11578154611a8a908690839087906001600160a01b0316612a93565b60026001830154600160a01b900460ff166004811115611b3357611b336131ab565b03611b52578154611a8a908690839087906001600160a01b0316612add565b8154611b6c908690839087906001600160a01b0316612b51565b50600101805460ff60a81b1916600160a81b179055505050565b60ff83165f9081526005850160205260408082208151610100810190925280548392919082908290611bb790613521565b80601f0160208091040260200160405190810160405280929190818152602001828054611be390613521565b8015611c2e5780601f10611c0557610100808354040283529160200191611c2e565b820191905f5260205f20905b815481529060010190602001808311611c1157829003601f168201915b50505050508152602001600182018054611c4790613521565b80601f0160208091040260200160405190810160405280929190818152602001828054611c7390613521565b8015611cbe5780601f10611c9557610100808354040283529160200191611cbe565b820191905f5260205f20905b815481529060010190602001808311611ca157829003601f168201915b505050918352505060028201546020820152600380830154604083015260048301546001600160a01b038116606084015260ff600160a01b82048116608085015260a090930192600160a81b9091041690811115611d1e57611d1e6131ab565b6003811115611d2f57611d2f6131ab565b81526020016004820160169054906101000a900460ff166007811115611d5757611d576131ab565b6007811115611d6857611d686131ab565b90525060ff8087165f9081526001890160205260409020549192501615611dd15760405162461bcd60e51b815260206004820152601d60248201527f50726f706572747920697320616c7265616479204d6f72746761676564000000604482015260640161068e565b836001600160a01b031681608001516001600160a01b031614611e065760405162461bcd60e51b815260040161068e9061367a565b60ff85165f90815260018781016020526040808320805460ff1916909217909155820151611e36906002906136c0565b979650505050505050565b60ff83165f908152600585016020526040812060048101546001600160a01b03848116911614611e835760405162461bcd60e51b815260040161068e9061367a565b6004810154600160a01b900460ff16611ed65760405162461bcd60e51b815260206004820152601560248201527463616e6e6f7420646f776e6772616465207369746560581b604482015260640161068e565b5f8460ff16118015611efa5750600481015460ff600160a01b909104811690851611155b611f395760405162461bcd60e51b815260206004820152601060248201526f63616e6e6f7420646f776e677261646560801b604482015260640161068e565b60ff8086165f9081526001880160205260409020541615611faa5760405162461bcd60e51b815260206004820152602560248201527f43616e6e6f7420646f776e67726164652061206d6f727467616765642070726f604482015264706572747960d81b606482015260840161068e565b5f611fb66001866136df565b611fc19060026137db565b8260020154611fd091906137e9565b9050848260040160148282829054906101000a900460ff16611ff291906136df565b92506101000a81548160ff021916908360ff1602179055508092505050949350505050565b60ff8084165f9081526001870160205260408120549091161561207c5760405162461bcd60e51b815260206004820152601d60248201527f50726f7065727479206973204d6f72746761676564206e6f2072656e74000000604482015260640161068e565b60ff84165f90815260058701602052604090206004810154306001600160a01b03909116036120ed5760405162461bcd60e51b815260206004820152601f60248201527f50726f706572747920646f6573206e6f74206861766520616e206f776e657200604482015260640161068e565b60048101546001600160a01b0380881691160361215a5760405162461bcd60e51b815260206004820152602560248201527f506c61796572204f776e732050726f7065727479206e6f206e65656420666f72604482015264081c995b9d60da1b606482015260840161068e565b5f60026004830154600160a81b900460ff16600381111561217d5761217d6131ab565b036121975761219088878760ff16612bc0565b905061221d565b60016004830154600160a81b900460ff1660038111156121b9576121b96131ab565b036121c8576121908887612c5f565b6004820154600160a01b900460ff166121e557816003015461221a565b600482015461220090600190600160a01b900460ff166136df565b61220b9060026137db565b826003015461221a91906137e9565b90505b80841015611e365760405162461bcd60e51b815260206004820152601d60248201527f496e73756666696369656e742062616c616e636520666f722072656e74000000604482015260640161068e565b60ff84165f908152600586016020526040812060048101546001600160a01b038581169116146122af5760405162461bcd60e51b815260040161068e9061367a565b60ff8087165f908152600189016020526040902054161561231e5760405162461bcd60e51b8152602060048201526024808201527f50726f7065727479206973204d6f727467616765642063616e6e6f74207570676044820152637261646560e01b606482015260840161068e565b5f6004820154600160a81b900460ff16600381111561233f5761233f6131ab565b1461238c5760405162461bcd60e51b815260206004820152601f60248201527f4f6e6c792070726f706572746965732063616e20626520757067726164656400604482015260640161068e565b5f8560ff161180156123a2575060058560ff1611155b6123e75760405162461bcd60e51b815260206004820152601660248201527524b73b30b634b2103ab833b930b23290373ab6b132b960511b604482015260640161068e565b5f876004015f8360040160169054906101000a900460ff166007811115612410576124106131ab565b6007811115612421576124216131ab565b815260208101919091526040015f90812054600484015460ff918216935060038b01918391600160b01b900416600781111561245f5761245f6131ab565b6007811115612470576124706131ab565b815260208082019290925260409081015f9081206001600160a01b038a16825290925290205460ff908116915082168110156125075760405162461bcd60e51b815260206004820152603060248201527f6d757374206f776e206174206c656173742074776f2f7468726565207369746560448201526f103bb4ba341039b0b6b29031b7b637b960811b606482015260840161068e565b60048301546005600160a01b90910460ff16106125775760405162461bcd60e51b815260206004820152602860248201527f726561636820746865207065616b207570677261646520666f7220746869732060448201526770726f706572747960c01b606482015260840161068e565b60048301545f90612593908990600160a01b900460ff16613661565b905060058160ff1611156125df5760405162461bcd60e51b81526020600482015260136024820152727570677261646520657863656564207065616b60681b604482015260640161068e565b5f6125eb6001836136df565b6125f69060026137db565b6126019060026137e9565b856002015461261091906137e9565b9050808710156126715760405162461bcd60e51b815260206004820152602660248201527f496e73756666696369656e742066756e647320746f20757067726164652070726044820152656f706572747960d01b606482015260840161068e565b888560040160148282829054906101000a900460ff166126919190613661565b92506101000a81548160ff021916908360ff160217905550809550505050505095945050505050565b60ff83165f90815260058501602052604080822081516101008101909252805483929190829082906126eb90613521565b80601f016020809104026020016040519081016040528092919081815260200182805461271790613521565b80156127625780601f1061273957610100808354040283529160200191612762565b820191905f5260205f20905b81548152906001019060200180831161274557829003601f168201915b5050505050815260200160018201805461277b90613521565b80601f01602080910402602001604051908101604052809291908181526020018280546127a790613521565b80156127f25780601f106127c9576101008083540402835291602001916127f2565b820191905f5260205f20905b8154815290600101906020018083116127d557829003601f168201915b505050918352505060028201546020820152600380830154604083015260048301546001600160a01b038116606084015260ff600160a01b82048116608085015260a090930192600160a81b9091041690811115612852576128526131ab565b6003811115612863576128636131ab565b81526020016004820160169054906101000a900460ff16600781111561288b5761288b6131ab565b600781111561289c5761289c6131ab565b815250509050836001600160a01b031681608001516001600160a01b0316146128d75760405162461bcd60e51b815260040161068e9061367a565b60ff8086165f908152600188016020526040902054166129395760405162461bcd60e51b815260206004820152601960248201527f50726f7065727479206973206e6f74204d6f7274676167656400000000000000604482015260640161068e565b5f6002826040015161294b91906136c0565b9050808410156129ac5760405162461bcd60e51b815260206004820152602660248201527f496e73756666696369656e742066756e647320746f2072656c65617365206d6f60448201526572746761676560d01b606482015260840161068e565b60ff86165f9081526001880160205260409020805460ff19169055915050949350505050565b6080830151805160209182015160ff8083165f81815260058a01865260408082209385168252808220968b905280822080546001600160a01b03808b166001600160a01b03199283161790925593835291208054918916919092161790559192909190612a4188828888612cb8565b610bda88838789612cb8565b6020838101515160ff81165f908152600587018352604080822093889052902080546001600160a01b0319166001600160a01b038616179055906102ea86828587612cb8565b8251805160209182015160ff81165f908152600588018452604080822094899052902080546001600160a01b0319166001600160a01b0386161790559091610f1787828787612cb8565b60408084015180519082015160ff8083165f81815260058a0160209081528682209385168252868220908b905286822080546001600160a01b03808b166001600160a01b031992831617909255938352969091208054968916969092169590951790559192909190612a4188828888612cb8565b6060830151805160209182015160ff8083165f81815260058a01865260408082209385168252808220968b905280822080546001600160a01b03808b166001600160a01b03199283161790925593835291208054918916919092161790559192909190612a4188828888612cb8565b5f8260ff16600d1480612bd657508260ff16601d145b612c125760405162461bcd60e51b815260206004820152600d60248201526c4e6f742061207574696c69747960981b604482015260640161068e565b601d5f9081526020859052604080822054600d83529120546001600160a01b03908116911614612c4c57612c478260046137e9565b612c57565b612c5782600a6137e9565b949350505050565b60ff8082165f90815260208481526040808320546001600160a01b0316808452600b87019092528220549192909116612c996001826136df565b612ca49060026137db565b612caf9060196137e9565b95945050505050565b6004830180546001600160a01b0319166001600160a01b038316179081905560019060038601905f90600160b01b900460ff166007811115612cfc57612cfc6131ab565b6007811115612d0d57612d0d6131ab565b815260208082019290925260409081015f9081206001600160a01b038716825290925281208054909190612d4590849060ff166136df565b92506101000a81548160ff021916908360ff1602179055506001846003015f8560040160169054906101000a900460ff166007811115612d8757612d876131ab565b6007811115612d9857612d986131ab565b815260208082019290925260409081015f9081206001600160a01b038616825290925281208054909190612dd090849060ff16613661565b92506101000a81548160ff021916908360ff16021790555060016003811115612dfb57612dfb6131ab565b6004840154600160a81b900460ff166003811115612e1b57612e1b6131ab565b03612ead576001600160a01b0382165f908152600b850160205260408120805460019290612e4d90849060ff166136df565b82546101009290920a60ff8181021990931691831602179091556001600160a01b0383165f908152600b8701602052604081208054600194509092612e9491859116613661565b92506101000a81548160ff021916908360ff1602179055505b50505050565b6040805160e0810182525f60a0820181815260c08301829052825282518084018452818152602080820183905280840191909152835160608181018652838252818301849052818601849052848601919091528451808201865283815280830184905280860184905290840152835180850190945281845283015290608082015290565b60405180610100016040528060608152602001606081526020015f81526020015f81526020015f6001600160a01b031681526020015f60ff1681526020015f6003811115612f8757612f876131ab565b81526020015f905290565b80356001600160a01b0381168114612fa8575f5ffd5b919050565b803560ff81168114612fa8575f5ffd5b5f5f5f5f5f5f60c08789031215612fd2575f5ffd5b612fdb87612f92565b9550612fe960208801612f92565b9450612ff760408801612fad565b935061300560608801612fad565b9250608087013560058110613018575f5ffd5b9598949750929591949360a090920135925050565b5f5f6040838503121561303e575f5ffd5b61304783612f92565b946020939093013593505050565b5f60208284031215613065575f5ffd5b6103ff82612f92565b5f6020828403121561307e575f5ffd5b6103ff82612fad565b5f6101808201905082518051835260ff602082015116602084015250602083015160ff81511660408401526020810151606084015250604083015160ff8151166080840152602081015160a084015260ff60408201511660c084015250606083015161311360e084018260ff815116825260ff6020820151166020830152604081015160408301525050565b506080830151805160ff9081166101408501526020820151166101608401525092915050565b5f5f6040838503121561314a575f5ffd5b61315383612fad565b915061316160208401612f92565b90509250929050565b5f5f5f6060848603121561317c575f5ffd5b61318584612f92565b925060208401359150604084013580151581146131a0575f5ffd5b809150509250925092565b634e487b7160e01b5f52602160045260245ffd5b5f60c08201905060018060a01b03835116825260018060a01b03602084015116602083015260ff604084015116604083015260ff6060840151166060830152608083015160058110613213576132136131ab565b8060808401525060a083015160a083015292915050565b634e487b7160e01b5f52604160045260245ffd5b5f5f6040838503121561324f575f5ffd5b823567ffffffffffffffff811115613265575f5ffd5b8301601f81018513613275575f5ffd5b803567ffffffffffffffff81111561328f5761328f61322a565b8060051b604051601f19603f830116810181811067ffffffffffffffff821117156132bc576132bc61322a565b6040529182526020818401810192908101888411156132d9575f5ffd5b6020850194505b838510156132ff576132f185612f92565b8152602094850194016132e0565b50976020969096013596505050505050565b5f5f5f60608486031215613323575f5ffd5b61332c84612fad565b925061333a60208501612fad565b915061334860408501612f92565b90509250925092565b5f5f5f60608486031215613363575f5ffd5b61336c84612f92565b925061337a60208501612fad565b915061334860408501612fad565b5f5f60408385031215613399575f5ffd5b6133a283612f92565b91506020830135600881106133b5575f5ffd5b809150509250929050565b5f81518084528060208401602086015e5f602082860101526020601f19601f83011685010191505092915050565b600481106133fe576133fe6131ab565b9052565b600881106133fe576133fe6131ab565b5f815161010084526134286101008501826133c0565b90506020830151848203602086015261344182826133c0565b915050604083015160408501526060830151606085015260018060a01b03608084015116608085015260a083015161347e60a086018260ff169052565b5060c083015161349160c08601826133ee565b5060e08301516134a460e0860182613402565b509392505050565b5f602082016020835280845180835260408501915060408160051b8601019250602086015f5b8281101561350357603f198786030184526134ee858351613412565b945060209384019391909101906001016134d2565b50929695505050505050565b602081525f6103ff6020830184613412565b600181811c9082168061353557607f821691505b60208210810361355357634e487b7160e01b5f52602260045260245ffd5b50919050565b634e487b7160e01b5f52601160045260245ffd5b808201808211156102fe576102fe613559565b5f60208284031215613590575f5ffd5b5051919050565b6001600160a01b039586168152938516602085015291841660408401529092166060820152608081019190915260a00190565b606080825284519082018190525f9060208601906080840190835b8181101561360c5783516001600160a01b03168352602093840193909201916001016135e5565b5050602084019590955250506001600160a01b0391909116604090910152919050565b634e487b7160e01b5f52603260045260245ffd5b5f60ff821660ff810361365857613658613559565b60010192915050565b60ff81811683821601908111156102fe576102fe613559565b60208082526026908201527f596f7520617265206e6f7420746865206f776e6572206f6620746869732070726040820152656f706572747960d01b606082015260800190565b5f826136da57634e487b7160e01b5f52601260045260245ffd5b500490565b60ff82811682821603908111156102fe576102fe613559565b6001815b60018411156137335780850481111561371757613717613559565b600184161561372557908102905b60019390931c9280026136fc565b935093915050565b5f82613749575060016102fe565b8161375557505f6102fe565b816001811461376b576002811461377557613791565b60019150506102fe565b60ff84111561378657613786613559565b50506001821b6102fe565b5060208310610133831016604e8410600b84101617156137b4575081810a6102fe565b6137c05f1984846136f8565b805f19048211156137d3576137d3613559565b029392505050565b5f6103ff60ff84168361373b565b80820281158282048414176102fe576102fe61355956fea264697066735822122024c534eb4dafb7c8a85f502f64db8d85a7a827c241f68c7535ce23c1e2d0c3e264736f6c634300081c0033","linkReferences":{}},"methodIdentifiers":{"bal(address)":"5580f72a","buyProperty(uint8,address)":"946b6306","downgradeProperty(uint8,uint8,address)":"c739e6ee","getNumberOfUserOwnedPropertyOnAColor(address,uint8)":"ce48d30d","getPropertiesOwnedByAPlayer(address)":"e7b5852f","getProperty(uint8)":"ffa8a178","getPropertyOwner(uint8)":"e9488e66","getProposalSwappedType(uint8)":"76187d1f","handleRent(address,uint8,uint8)":"cc94a51b","makeDecisionOnProposal(address,uint256,bool)":"a28737b5","makeProposal(address,address,uint8,uint8,uint8,uint256)":"336d755f","mint(address,uint256)":"40c10f19","mints(address[],uint256)":"ad3898ed","mortgageProperty(uint8,address)":"a306f889","releaseMortgage(uint8,address)":"e6fb39ba","returnProposal(address)":"a6cd56e5","upgradeProperty(uint8,uint8,address)":"cd2385b9"},"id":53}