{"abi":[{"type":"constructor","inputs":[],"stateMutability":"nonpayable"},{"type":"function","name":"approve","inputs":[{"name":"gameId","type":"address","internalType":"address"},{"name":"owner","type":"address","internalType":"address"},{"name":"spender","type":"address","internalType":"address"}],"outputs":[],"stateMutability":"nonpayable"},{"type":"function","name":"balanceOf","inputs":[{"name":"owner","type":"address","internalType":"address"},{"name":"contractAddress","type":"address","internalType":"address"}],"outputs":[{"name":"","type":"uint256","internalType":"uint256"}],"stateMutability":"view"},{"type":"function","name":"mint","inputs":[{"name":"numberOfP","type":"uint8","internalType":"uint8"},{"name":"contractAddress","type":"address","internalType":"address"}],"outputs":[],"stateMutability":"nonpayable"},{"type":"function","name":"mintToPlayers","inputs":[{"name":"players","type":"address[]","internalType":"address[]"},{"name":"amount","type":"uint256","internalType":"uint256"},{"name":"contractAddress","type":"address","internalType":"address"}],"outputs":[],"stateMutability":"nonpayable"},{"type":"function","name":"name","inputs":[],"outputs":[{"name":"","type":"string","internalType":"string"}],"stateMutability":"view"},{"type":"function","name":"symbol","inputs":[],"outputs":[{"name":"","type":"string","internalType":"string"}],"stateMutability":"view"},{"type":"function","name":"transfer","inputs":[{"name":"gameId","type":"address","internalType":"address"},{"name":"owner","type":"address","internalType":"address"},{"name":"beneficiary","type":"address","internalType":"address"},{"name":"amount","type":"uint256","internalType":"uint256"}],"outputs":[],"stateMutability":"nonpayable"},{"type":"function","name":"transferFrom","inputs":[{"name":"gameId","type":"address","internalType":"address"},{"name":"owner","type":"address","internalType":"address"},{"name":"spender","type":"address","internalType":"address"},{"name":"beneficiary","type":"address","internalType":"address"},{"name":"amount","type":"uint256","internalType":"uint256"}],"outputs":[],"stateMutability":"nonpayable"}],"bytecode":{"object":"0x60c0604052600e60809081526d26b7b737b837b63c902a37b5b2b760911b60a05260039061002d9082610111565b5060408051808201909152600381526213541560ea1b60208201526004906100559082610111565b50348015610061575f5ffd5b50600280546001600160a01b031916301790556101cb565b634e487b7160e01b5f52604160045260245ffd5b600181811c908216806100a157607f821691505b6020821081036100bf57634e487b7160e01b5f52602260045260245ffd5b50919050565b601f82111561010c57805f5260205f20601f840160051c810160208510156100ea5750805b601f840160051c820191505b81811015610109575f81556001016100f6565b50505b505050565b81516001600160401b0381111561012a5761012a610079565b61013e81610138845461008d565b846100c5565b6020601f821160018114610170575f83156101595750848201515b5f19600385901b1c1916600184901b178455610109565b5f84815260208120601f198516915b8281101561019f578785015182556020948501946001909201910161017f565b50848210156101bc57868401515f19600387901b60f8161c191681555b50505050600190811b01905550565b61085a806101d85f395ff3fe608060405234801561000f575f5ffd5b5060043610610085575f3560e01c806395d89b411161005857806395d89b41146100e25780639b140a85146100ea578063f18d03cc1461012e578063f7888aec14610141575f5ffd5b80630422de1e1461008957806306fdde031461009e5780636e275bd2146100bc5780637bf75f6c146100cf575b5f5ffd5b61009c610097366004610501565b610162565b005b6100a661021d565b6040516100b391906105e5565b60405180910390f35b61009c6100ca36600461061a565b6102a9565b61009c6100dd366004610672565b6102b7565b6100a6610314565b61009c6100f83660046106aa565b6001600160a01b039283165f9081526001602090815260408083209486168352938152838220929094168152925290205f199055565b61009c61013c3660046106e1565b610321565b61015461014f366004610729565b610334565b6040519081526020016100b3565b805f816001600160a01b03163b116101c15760405162461bcd60e51b815260206004820152601d60248201527f4f6e6c7920636f6e7472616374206164647265737320616c6c6f77656400000060448201526064015b60405180910390fd5b5f5b84518160ff161015610216576102048384878460ff16815181106101e9576101e9610743565b6020026020010151875f61035e90949392919063ffffffff16565b8061020e8161076b565b9150506101c3565b5050505050565b6003805461022a90610789565b80601f016020809104026020016040519081016040528092919081815260200182805461025690610789565b80156102a15780601f10610278576101008083540402835291602001916102a1565b820191905f5260205f20905b81548152906001019060200180831161028457829003601f168201915b505050505081565b6102165f8686868686610442565b5f6102c38360046107c1565b6102d29060ff166103e86107da565b6001600160a01b0383165f908152602081815260408083209091528120805461ffff939093169350839290919061030a9084906107fe565b9091555050505050565b6004805461022a90610789565b61032e5f8585858561035e565b50505050565b6001600160a01b038181165f90815260208181526040808320938616835292905220545b92915050565b6001600160a01b038085165f9081526020878152604080832093871683529290522054818110156103c85760405162461bcd60e51b8152602060048201526014602482015273496e73756666696369656e742062616c616e636560601b60448201526064016101b8565b6001600160a01b038086165f90815260208881526040808320938816835292905290812080548492906103fc908490610811565b90915550506001600160a01b038086165f90815260208881526040808320938716835292905290812080548492906104359084906107fe565b9091555050505050505050565b6001600160a01b038086165f90815260018801602090815260408083208885168452825280832093871683529290522054818110156104bc5760405162461bcd60e51b8152602060048201526016602482015275496e73756666696369656e7420616c6c6f77616e636560501b60448201526064016101b8565b6104c9878787868661035e565b50505050505050565b634e487b7160e01b5f52604160045260245ffd5b80356001600160a01b03811681146104fc575f5ffd5b919050565b5f5f5f60608486031215610513575f5ffd5b833567ffffffffffffffff811115610529575f5ffd5b8401601f81018613610539575f5ffd5b803567ffffffffffffffff811115610553576105536104d2565b8060051b604051601f19603f830116810181811067ffffffffffffffff82111715610580576105806104d2565b60405291825260208184018101929081018984111561059d575f5ffd5b6020850194505b838510156105c3576105b5856104e6565b8152602094850194016105a4565b509550505050602084013591506105dc604085016104e6565b90509250925092565b602081525f82518060208401528060208501604085015e5f604082850101526040601f19601f83011684010191505092915050565b5f5f5f5f5f60a0868803121561062e575f5ffd5b610637866104e6565b9450610645602087016104e6565b9350610653604087016104e6565b9250610661606087016104e6565b949793965091946080013592915050565b5f5f60408385031215610683575f5ffd5b823560ff81168114610693575f5ffd5b91506106a1602084016104e6565b90509250929050565b5f5f5f606084860312156106bc575f5ffd5b6106c5846104e6565b92506106d3602085016104e6565b91506105dc604085016104e6565b5f5f5f5f608085870312156106f4575f5ffd5b6106fd856104e6565b935061070b602086016104e6565b9250610719604086016104e6565b9396929550929360600135925050565b5f5f6040838503121561073a575f5ffd5b610693836104e6565b634e487b7160e01b5f52603260045260245ffd5b634e487b7160e01b5f52601160045260245ffd5b5f60ff821660ff810361078057610780610757565b60010192915050565b600181811c9082168061079d57607f821691505b6020821081036107bb57634e487b7160e01b5f52602260045260245ffd5b50919050565b60ff818116838216019081111561035857610358610757565b61ffff81811683821602908116908181146107f7576107f7610757565b5092915050565b8082018082111561035857610358610757565b818103818111156103585761035861075756fea26469706673582212207796ed1d5522e33555fd8760c9c70b21517937f5894e8da93cf18503ce3a7b8164736f6c634300081c0033","linkReferences":{}},"methodIdentifiers":{"approve(address,address,address)":"9b140a85","balanceOf(address,address)":"f7888aec","mint(uint8,address)":"7bf75f6c","mintToPlayers(address[],uint256,address)":"0422de1e","name()":"06fdde03","symbol()":"95d89b41","transfer(address,address,address,uint256)":"f18d03cc","transferFrom(address,address,address,address,uint256)":"6e275bd2"},"id":58}