{
    "abi": [
        {
            "type": "constructor",
            "inputs": [
                {
                    "name": "_owner",
                    "type": "address",
                    "internalType": "address"
                },
                {
                    "name": "_entryPoint",
                    "type": "address",
                    "internalType": "address"
                }
            ],
            "stateMutability": "nonpayable"
        },
        {
            "type": "receive",
            "stateMutability": "payable"
        },
        {
            "type": "function",
            "name": "entryPoint",
            "inputs": [],
            "outputs": [
                {
                    "name": "",
                    "type": "address",
                    "internalType": "address"
                }
            ],
            "stateMutability": "view"
        },
        {
            "type": "function",
            "name": "execute",
            "inputs": [
                {
                    "name": "_target",
                    "type": "address",
                    "internalType": "address"
                },
                {
                    "name": "value",
                    "type": "uint256",
                    "internalType": "uint256"
                },
                {
                    "name": "data",
                    "type": "bytes",
                    "internalType": "bytes"
                }
            ],
            "outputs": [
                {
                    "name": "",
                    "type": "bool",
                    "internalType": "bool"
                },
                {
                    "name": "",
                    "type": "bytes",
                    "internalType": "bytes"
                }
            ],
            "stateMutability": "nonpayable"
        },
        {
            "type": "function",
            "name": "nonce",
            "inputs": [],
            "outputs": [
                {
                    "name": "",
                    "type": "uint256",
                    "internalType": "uint256"
                }
            ],
            "stateMutability": "view"
        },
        {
            "type": "function",
            "name": "owner",
            "inputs": [],
            "outputs": [
                {
                    "name": "",
                    "type": "address",
                    "internalType": "address"
                }
            ],
            "stateMutability": "view"
        },
        {
            "type": "function",
            "name": "validateUserOp",
            "inputs": [
                {
                    "name": "userOp",
                    "type": "tuple",
                    "internalType": "struct PackedUserOperation",
                    "components": [
                        {
                            "name": "sender",
                            "type": "address",
                            "internalType": "address"
                        },
                        {
                            "name": "nonce",
                            "type": "uint256",
                            "internalType": "uint256"
                        },
                        {
                            "name": "initCode",
                            "type": "bytes",
                            "internalType": "bytes"
                        },
                        {
                            "name": "callData",
                            "type": "bytes",
                            "internalType": "bytes"
                        },
                        {
                            "name": "accountGasLimits",
                            "type": "bytes32",
                            "internalType": "bytes32"
                        },
                        {
                            "name": "preVerificationGas",
                            "type": "uint256",
                            "internalType": "uint256"
                        },
                        {
                            "name": "gasFees",
                            "type": "bytes32",
                            "internalType": "bytes32"
                        },
                        {
                            "name": "paymasterAndData",
                            "type": "bytes",
                            "internalType": "bytes"
                        },
                        {
                            "name": "signature",
                            "type": "bytes",
                            "internalType": "bytes"
                        }
                    ]
                },
                {
                    "name": "userOpHash",
                    "type": "bytes32",
                    "internalType": "bytes32"
                },
                {
                    "name": "missingAccountFunds",
                    "type": "uint256",
                    "internalType": "uint256"
                }
            ],
            "outputs": [
                {
                    "name": "validationData",
                    "type": "uint256",
                    "internalType": "uint256"
                }
            ],
            "stateMutability": "nonpayable"
        },
        {
            "type": "error",
            "name": "ECDSAInvalidSignature",
            "inputs": []
        },
        {
            "type": "error",
            "name": "ECDSAInvalidSignatureLength",
            "inputs": [
                {
                    "name": "length",
                    "type": "uint256",
                    "internalType": "uint256"
                }
            ]
        },
        {
            "type": "error",
            "name": "ECDSAInvalidSignatureS",
            "inputs": [
                {
                    "name": "s",
                    "type": "bytes32",
                    "internalType": "bytes32"
                }
            ]
        }
    ],
    "bytecode": {
        "object": "0x608060405234801561000f575f5ffd5b506040516108fa3803806108fa83398101604081905261002e91610195565b6001600160a01b0382166100895760405162461bcd60e51b815260206004820152601460248201527f6f776e65722063616e6e6f74206265207a65726f00000000000000000000000060448201526064015b60405180910390fd5b5f546001600160a01b03163b156100e25760405162461bcd60e51b815260206004820152601b60248201527f4f776e65723a2063616e6e6f74206265206120636f6e747261637400000000006044820152606401610080565b5f816001600160a01b03163b1161014a5760405162461bcd60e51b815260206004820152602660248201527f456e747279506f696e743a206d757374206265206120636f6e7472616374206160448201526564647265737360d01b6064820152608401610080565b5f80546001600160a01b039384166001600160a01b031991821617909155600180549290931691161790556101c6565b80516001600160a01b0381168114610190575f5ffd5b919050565b5f5f604083850312156101a6575f5ffd5b6101af8361017a565b91506101bd6020840161017a565b90509250929050565b610727806101d35f395ff3fe60806040526004361061004c575f3560e01c806319822f7c146100575780638da5cb5b14610089578063affed0e0146100bf578063b0d691fe146100d4578063b61d27f6146100f3575f5ffd5b3661005357005b5f5ffd5b348015610062575f5ffd5b506100766100713660046104df565b610120565b6040519081526020015b60405180910390f35b348015610094575f5ffd5b505f546100a7906001600160a01b031681565b6040516001600160a01b039091168152602001610080565b3480156100ca575f5ffd5b5061007660025481565b3480156100df575f5ffd5b506001546100a7906001600160a01b031681565b3480156100fe575f5ffd5b5061011261010d366004610542565b61022f565b60405161008092919061061b565b5f6002548460200135146101705760405162461bcd60e51b8152602060048201526012602482015271696e76616c69642075736572206e6f6e636560701b60448201526064015b60405180910390fd5b7f19457468657265756d205369676e6564204d6573736167653a0a3332000000005f908152601c849052603c8120906101ec6101b0610100880188610659565b8080601f0160208091040260200160405190810160405280939291908181526020018383808284375f9201919091525086939250506102ea9050565b5f549091506001600160a01b0380831691161461020e57600192505050610228565b60028054905f61021d836106a3565b91905055505f925050505b9392505050565b5f60605f5f866001600160a01b0316868660405161024d91906106c7565b5f6040518083038185875af1925050503d805f8114610287576040519150601f19603f3d011682016040523d82523d5f602084013e61028c565b606091505b5091509150816102de5760405162461bcd60e51b815260206004820152601960248201527f636f756c64206e6f7420636f6d706c65746520616374696f6e000000000000006044820152606401610167565b90969095509350505050565b5f5f5f5f6102f88686610312565b925092509250610308828261035b565b5090949350505050565b5f5f5f8351604103610349576020840151604085015160608601515f1a61033b88828585610417565b955095509550505050610354565b505081515f91506002905b9250925092565b5f82600381111561036e5761036e6106dd565b03610377575050565b600182600381111561038b5761038b6106dd565b036103a95760405163f645eedf60e01b815260040160405180910390fd5b60028260038111156103bd576103bd6106dd565b036103de5760405163fce698f760e01b815260048101829052602401610167565b60038260038111156103f2576103f26106dd565b03610413576040516335e2f38360e21b815260048101829052602401610167565b5050565b5f80807f7fffffffffffffffffffffffffffffff5d576e7357a4501ddfe92f46681b20a084111561045057505f915060039050826104d5565b604080515f808252602082018084528a905260ff891692820192909252606081018790526080810186905260019060a0016020604051602081039080840390855afa1580156104a1573d5f5f3e3d5ffd5b5050604051601f1901519150506001600160a01b0381166104cc57505f9250600191508290506104d5565b92505f91508190505b9450945094915050565b5f5f5f606084860312156104f1575f5ffd5b833567ffffffffffffffff811115610507575f5ffd5b84016101208187031215610519575f5ffd5b95602085013595506040909401359392505050565b634e487b7160e01b5f52604160045260245ffd5b5f5f5f60608486031215610554575f5ffd5b83356001600160a01b038116811461056a575f5ffd5b925060208401359150604084013567ffffffffffffffff81111561058c575f5ffd5b8401601f8101861361059c575f5ffd5b803567ffffffffffffffff8111156105b6576105b661052e565b604051601f8201601f19908116603f0116810167ffffffffffffffff811182821017156105e5576105e561052e565b6040528181528282016020018810156105fc575f5ffd5b816020840160208301375f602083830101528093505050509250925092565b8215158152604060208201525f82518060408401528060208501606085015e5f606082850101526060601f19601f8301168401019150509392505050565b5f5f8335601e1984360301811261066e575f5ffd5b83018035915067ffffffffffffffff821115610688575f5ffd5b60200191503681900382131561069c575f5ffd5b9250929050565b5f600182016106c057634e487b7160e01b5f52601160045260245ffd5b5060010190565b5f82518060208501845e5f920191825250919050565b634e487b7160e01b5f52602160045260245ffdfea2646970667358221220200b2bf903c68e51d55bcbab7a4c9deb44dce2cbfd008d1879e2e04ceeb413bc64736f6c634300081c0033",
        "linkReferences": {}
    },
    "methodIdentifiers": {
        "entryPoint()": "b0d691fe",
        "execute(address,uint256,bytes)": "b61d27f6",
        "nonce()": "affed0e0",
        "owner()": "8da5cb5b",
        "validateUserOp((address,uint256,bytes,bytes,bytes32,uint256,bytes32,bytes,bytes),bytes32,uint256)": "19822f7c"
    },
    "id": 60
}